:0200000401F009
:100000000180FFFF5AFFFFFF616C7068612F616E16
:10001000676C652F31FFFFFF0280FFFF29FFFFFFA5
:10002000616C7068612F6C656E6774682F31FFFFBB
:100030000380FFFF3AFFFFFF616C7068612F6C6502
:100040006E6774682F32FFFF0480FFFF7C01FFFFA3
:10005000616C7068612F626574612F766F6C74617A
:100060006765FFFF0580FFFF4143FFFF616C70681C
:10007000612F626574612F736F75726365FFFFFF97
:100080000680FFFF2DFFFFFF67616D6D61FFFFFFC2
:10009000FFFFFFFFFFFFFFFFFFFFFFFFFFFFFFFF70
:1000A000FFFFFFFFFFFFFFFFFFFFFFFFFFFFFFFF60
:1000B000FFFFFFFFFFFFFFFFFFFFFFFFFFFFFFFF50
:1000C000FFFFFFFFFFFFFFFFFFFFFFFFFFFFFFFF40
:10037000068088000500FFD906C084000100FF92B6
:10038000008080000200FF1A05806C001100FF024F
:1003900005C068000200FFE4008064000200FFAEB8
:1003A000048050001200FFA004C04C000200FFD0E7
:1003B000008048000200FF5C038038000E00FF5EF2
:1003C00003C034000100FFF9008030000200FFDBB1
:1003D000028020000E00FFAA02C01C000100FF5B8B
:1003E000008018000200FFA6018008000D00FF0C2D
:1003F00001C004000100FF16008000000200FF8D14
:10040000FFFFFFFFFFFFFFFFFFFFFFFFFFFFFFFFFC
:10041000FFFFFFFFFFFFFFFFFFFFFFFFFFFFFFFFEC
:10042000FFFFFFFFFFFFFFFFFFFFFFFFFFFFFFFFDC
:10043000FFFFFFFFFFFFFFFFFFFFFFFFFFFFFFFFCC
:00000001FF
