# blaster_6810.hex
# Version = 1.39
:06000000020097021DEE54
:03000B00021E11C1
:03001300021DF0DB
:03001B00021E13AF
:03002300021E7842
:03002B00021E159D
:03003300021501B2
:03003B00021E7929
#:030043000215069D
:03004B00021DEFA4
#:030053000215058E
:03005B00021DF291
:03006300021DF388
:1200F000753200753300753F0075400075410002006628
:030066000201C4D0
:20010200AF82852460852561852862852963852A64852665852766A21192128F82021A417E
:20012200AF82852B69852C6A852F6B85306C85316D852D6E852E6FA2119213757000757190
:20014200A68F82021AAFAF820FBFC00040027F008F822290E65CE0FF74084FF02290E65C08
:20016200E0FF74104FF02290E65CE0FF74204FF02290E65CE0FF74014FF022D2DE2290E644
:2001820080E0FF740A4FF09005DC1219F890E680E0FF74F75FF022E510F0E511A3F02290DC
:2001A200E6BAE0FF24FF9202500C751011751160901EA6020199751010751160901EA6026E
:2001C2000199C204C205D206C208C209C20AC20CC207C201C20312018090E6007410F09091
:2001E200E60174E3F012198D75AF0790E60BE0FF74034FF012198D90E6707480F090E603DB
:200202007498F012198D90E6027467F090E6347409F090E63574FDF090E6367409F090E633
:200222003774FDF012198DE500D2E890E668E0FF74084FF090E65CE0FF74014FF0E0FF749D
:20024200204FF0E0FF74104FF0E0FF74084FF090E61274A2F012198D90E61474E2F01219C0
:200262008D90E61374A2F012198D90E61574E2F012198D90E61174A0F012198D90E61074E2
:20028200A0F012198D754701758202120B00754701758204120B00754701758286120B0015
:2002A200754701758288120B0090E6187414F012198D90E61A744CF012198D90E619741416
:2002C200F012198D90E61B744CF012198D75B5B712198D75B0A012198D7537A07538A07557
:2002E20039A0753AA0753BA0753CA0753DA0753EA090E6247402F012198D90E625E4F090D7
:20030200E6267402F012198D90E627E4F090E68D04F012198D90E6827404F012198DD2DEC9
:2003220012198DC28C758E03AF8974F05FF589438901758A00758C001204EC501B12054C99
:20034200754240754340901ED7120458754230754310901F5912045875800212198D3009AC
:20036200047F0380027F018FB212198DD2AF100502805DC28012198D300B1D75B5001219DE
:200382008D75B20112198D90E6027498F012198D90E601E4F012198D438701300B2690E61D
:2003A2000174E3F012198D90E6027467F012198D75B5B712198D3009047F0380027F018F57
:2003C200B212198DA2079280D2069000641219F8100402800312188D30080E900032121984
:2003E200F8120453120180C2083006119000641219F8C2067549017582FF1211C190E6A167
:20040200E0FF7E0020E116E532C39533FFBFBF00500B3002051210268003120E8D90E6A225
:20042200E0FF7E0030E103020370E532C395337003020370121188020370E582FF24FF920F
:2004420000D206EF60047F4880027F4C8F82020AC3C280C207228582448583453011047DF4
:200462005180027D508D8274022544FCE43545FD8C018D027B007562007563308B64854368
:20048200658B668542608B61A2119212121A417800C3E895435028E82400F582E43430F5FA
:2004A20083E0FFFE601989828A838BF0EE121DF5A38BF0E4121DF5A3A982AA830880D27FC2
:2004C20000C001C002C0038C828D838FF01200691581158115815011E9C39544F9EA954557
:2004E200FA854482854583E9F022758244120AC3C211756246756300756440E4F560F561E3
:20050200756501F566C212758250121A415008758230120AC3D322D211756246756300757B
:200522006440E4F560F561756501F566D212758251121A415008758231120AC3D32275826C
:2005420032120AC3D211D203C3223011047F5180027F508F82756200756330E4F564F56003
:20056200F561756526F566A2119212121A41903000E0FFBFC0028008BFC2028003D203225F
:20058200903025E0FF601DEF240550027FFA9020BF7480F09020C0EFF09020F77480F09078
:2005A20020F8EFF0903023E0FF74105F24FF920C90301EE0FEBE0700920EB39209BE0800A7
:2005C200920EB3920A530720EF24FF920B22AF82E4BFDD0104FE700E758256C007C00612C1
:2005E2001853D006D007BF0002806FBF090302068CBF800302068EBF81030206CEBF82039D
:200602000206D1BF83030206D4BF84030206EBBF8F03020714BF900302071BBF9103020765
:200622006EBF94030207C1BF9503020806BF9603020812BF970302081EBFA203020751BF51
:20064200A503020754BFD1030209DEBFD203020A1BEE6003020A40020AC190E6BAE0FF6083
:2006620027BF01028005BF021F800B754700758204120B008012754700758288120B0030B1
:200682000206753300753200D322D32290E6BDE06003020AC17549007582001211C190E6C5
:2006A200BAE013920F92B490E6BAE0FF30E11B754700758202120B00754700758286120B41
:2006C20000200206753300753200D322020E94020CDE200C03020AC190E6BAE024FF92015A
:2006E2007549017582FF0211C13009247549017582FF1211C1AF3590E740EFF0AF3690E7A3
:2007020041EFF090E68AE4F090E68B7402F0D322C3221201A1D208D32290E6BCE0FFBF2827
:20072200028005BF291C800E90E7407452F090E7417445F0800C90E7407456F090E74174A7
:2007420042F090E68AE4F090E68B7402F0D322020C0C3011047F0180027F0090E740EFF0BF
:2007620090E68AE4F090E68B04F0D32290E6BAE0700B90E6FBE0FF90E740F0803690E6BA51
:20078200E0FFBF011490E6FBE0FF74024FF090E7407401F0120180801A90E6BAE0FFBF0286
:2007A2001290E6FBE0FF74FD5FF090E7407402F012018090E68AE4F090E68B04F0D3229017
:2007C2001EA9E493243090E740F090E741742EF0901EA8E493C4540FFF53070F74302F90D5
:2007E200E742F0901EA8E493FF53070F74302F90E743F090E744E4F090E68AF090E68B7438
:2008020005F0D32290E6BAE0FF90E648F0020AC190E6BAE0FF90E649F0020AC190E745E536
:20082200AAF090E7467412F090E7477434F090E6BAE0FF6031BF01028051BF02030208D1C1
:20084200BF0403020908BF060302093FBF0803020975BF81028056BF860302093FBF88036D
:200862000209750209AB90E6A0E090E740F090E68AE090E741F090E68BE0FF90E742F09002
:20088200E743E4F090E744F00209D190E6A1E090E740F090E741E4F090E68DE0FF90E7420C
:2008A200F090E743E4F090E744F00209D190E6A2E090E740F090E741E4F090E68FE0FF9092
:2008C200E742F090E743E4F090E744F00209D190E6A3E090E740F090E690E090E741F0902A
:2008E200E691E090E742F090E6ABE090E743F090E6ACE090E744F090E6837402F0E0FF90D0
:20090200E746F00209D190E6A4E090E740F090E694E090E741F090E695E090E742F090E69F
:20092200ADE090E743F090E6AEE090E744F090E6837404F0E0FF90E746F00209D190E6A5EB
:20094200E090E740F090E698E090E741F090E699E090E742F090E6AFE090E743F090E6B00B
:20096200E090E744F090E6837416F0E0FF90E746F0805C90E6A6E090E740F090E69CE090EA
:20098200E741F090E69DE090E742F090E6B1E090E743F090E6B2E090E744F090E6837418B8
:2009A200F0E0FF90E746F0802690E740E4F090E6BBE090E741F090E6BAE090E742F090E6A0
:2009C200BDE090E743F090E6BCE0FF90E744F090E68AE4F090E68B7408F0D32290E6BAE0CC
:2009E200FFBF010690E60174E3F090E6BAE0FFBF020690E60174A3F090E601E090E740F020
:200A020090E7417412F090E7427434F090E68AE4F090E68B7403F0D32290E6BAE0F5B090DF
:200A2200E740E5B0F090E7417412F090E7427434F090E68AE4F090E68B7403F0D32290E6E2
:200A4200A3E090E740F090E6A5E090E741F090E6A4E090E742F090E6A6E090E743F090E608
:200A6200A1E090E744F090E6A2E090E745F090E746E5AAF090E7477408F07F08BF3F005069
:200A820032E540B53F02802B8F060FEE2440FEE434E7FDE5402400F582E43431F583E08E7D
:200AA200828D83F0854082C007120148858240D00780C990E68AE4F090E68BEFF0D322C376
:200AC20022D310AF01C3C0D0AF82853F82C007120148AE82D007EEB54010E53F2400F582BA
:200AE200E43431F5837421F0800FE53F2400F582E43431F583EFF08E3FD0D092AF22AF82BF
:200B0200758251C007120AC3D007740F5F2430F582C007120AC3D007E5476017740F5FFE61
:200B220074805FC423541FFD90E6832EF0E0FE74204EF0740F5FFEBE0128BF01067DA17E19
:200B4200E680047DA27EE68E047E008D828C838EF0121E7BFB5303FE8D828C838EF0EB0277
:200B62001DF590E6047480F0C00712198DD00790E604E04FF0C00712198D90E604E4F01235
:200B8200198DD007E4BF020104FB7012BF0402800DE4BF860104FA7046BF886D8041EB60BF
:200BA2000679A37BE6800479A47BE689058B047E008D828C838EF0121E7BFB5303FE8D826E
:200BC2008C838EF0EB121DF543078090E649EFF0C00712198DD00790E649EFF002198DEA89
:200BE20060067BA57FE680047BA67FE68B058F047E008D828C838EF0121E7BFF5307FE8D32
:200C0200828C838EF0EF021DF5223011047F51800B90E6BBE0FE74035E4450FF3011067DC3
:200C2200007E4080047D007E0290E6BEE0FC90E6BBE0FA7B0090E6BAE0F87900E84203E946
:200C4200420290E6BFE07005EC24BF5002C322C3EB9DEA9E40047C0080178C007900E82B7C
:200C6200F8E93AF9C3ED98EE9950068B06EDC39EFC90E6B8E0FE30E72AEC601B756240751E
:200C820063E77564008C657566008B608A61A21192128F82121A4190E68AE4F090E68BECF7
:200CA200F08037EC6034C007C004C003C002120D55D002D003D004D007756B40756CE775DA
:200CC2006D008C6E756F008B698A6AA21192137570007571A68F82121AAFD32290E6BBE024
:200CE200FE7F0090E6BAE07C004207EC420690E6BEE0FD90E6BFE07005ED24BF5002C322CA
:200D020074F02E50047D0080188D037C00EB2FFBEC3EFCC3E49B74109C50068F04C3E49C01
:200D2200FD90E6B8E0FC30E725200A027D00754B40754CE7754D008D4A8F828E8312122A14
:200D4200AD8290E68AE4F090E68BEDF08003120D55D32290E68AE4F090E68BF090E6A0E009
:200D6200FF7E0020E1F690E68BE0F58222E582FF6003BF0112AD10AE11AF128D828E838FFC
:200D8200F0E4121DF5D322C322E582FF7018E5487014754701758204120B00754701758257
:200DA20088120B00D322BF0118E5487014754701758202120B00754701758286120B00D311
:200DC20022C3223007047F0180027F008F8222E582FF24FE5002C322EF7008C207A20792F1
:200DE20080D322758243120AC33000047F4880027F4C8F82120AC33000067E007F02800472
:200E02007E407F008F0590E624EDF0C007C006C00512198DD005D006D0078E0390E625EBE5
:200E2200F0C005C00312198DD003D00590E626EDF0C00312198DD00390E627EBF030000663
:200E42007CFD7D0980047C7D7D008C068D078F0590E634EDF0C007C006C00512198DD00577
:200E6200D006D00790E635EEF0C006C00512198DD00590E636EDF012198DD00690E637EE70
:200E8200F0D207A2079280D206D32290E68D7401F02290E6BEE0FF90E6BFE06003020F8653
:200EA200EF24BF5003020F86754900758200C0071211C1120F9290E6BAE0FE74FE5EF5820C
:200EC200120FA4E582D0076003020F7F90E6BBE0F582C007120FA4D00790E6B8E0FE30E70C
:200EE20070C007120F9290E6BAE0FE74014EF582120FA4D0077E00C3EE9F5042EE2440FC74
:200F0200E434E7FD8E027B000ABA00010B8F007900EAB50008EBB5010474018001E4F58253
:200F2200C007C006C005C004120FD5AB82D004D005D006D0078C828D83EBF00E80B9C00719
:200F4200121005D00790E68AE4F090E68BEFF0D322120D55AF827E00C3EE9F501BEE2440B8
:200F6200F582E434E7F583E0F582C007C006120FA4D006D0070E80E0121005D322C00712C8
:200F82001005D00790E68AE4F090E68BEFF0C322D2B7121021D2B5121019C2B712101DC2C2
:200FA200B522E5827B081210213392B7121021D2B512101DC2B5DBEE121021D2B712102157
:200FC200D2B5A2B674003312101DC2B5F5822275820022AD82121021D2B77B08121021D28E
:200FE200B5A2B612101DC2B533121021DBEEF582ED1392B7121021D2B512101DC2B5227516
:20100200820022121021C2B7121021D2B512101DD2B7227C12800A7C1080067C0D80027C09
:2010220008DCFE227E007F0090E68DE0FD7C00C3EE9DEF64808CF063F08095F04003021007
:20104200F8EE2480F582EF34E7F583E0FDE54160361541200D108D82C007C0061210FFD052
:2010620006D0070210F08D82C007C00612113BAD82D006D007AC320532EC2400F582E43405
:2010820030F583EDF080678D037C00EB30E70CEDA2E6920D743F5DF5418053EB20E503BDEB
:2010A2001E2D74105D0303543FFA4302B074035D4AF5B0EB30E637AA320532EA2400F582E7
:2010C200E43430F583A2B3E4334410FAF0801FBD5F02801AEB30E616AD320532ED2400F51A
:2010E20082E43430F583A2B3E4334410FDF00EBE00010F02102A90E68D7401F022E58213E3
:2011020092B2D2B013C2B092B2D2B013C2B092B2D2B013C2B092B2D2B013C2B092B2D2B0DB
:2011220013C2B092B2D2B013C2B092B2D2B013C2B092B2D2B000C2B022E582A2B31392B225
:20114200D2B0C2B0A2B31392B2D2B0C2B0A2B31392B2D2B0C2B0A2B31392B2D2B0C2B0A217
:20116200B31392B2D2B0C2B0A2B31392B2D2B0C2B0A2B31392B2D2B0C2B0A2B31392B2D2B1
:20118200B0C2B0F58222E532C39533FF24BF50027F407E00C3EE9F5020EE24C0FCE434E7F2
:2011A200FDAB330533EB2400F582E43430F583E0FB8C828D83F00E80DB90E68FEFF022AFCD
:2011C20082200902C322AE34BF0700500C741F5EFDEFC42354E0FF4DFE3000054306108027
:2011E200068E0774EF5FFE30010543060880068E0774F75FFEEEB5340474018001E4FFE58F
:2012020049B40100E433FD5F6002D322C006121345D0068E348E8375820012131F858235B4
:20122200858336121353D322AE82AF83755100E54A7003F58222C007C006121345D006D001
:20124200078E03EFC454F0CBC4CB6BCB54F0CB6BFC74014BF5828C83C007C00612131FD010
:2012620006D007AA4BAB4CAC4DA94A754E00E970030213100EBE00010FC007C006C004C086
:2012820003C002C001121317D001D002D003D004D006D007E924FE50198E00EFC454F0C8D2
:2012A200C4C868C854F0C868FD740148F54F8D508008A8347D0088508D4F854F82855083DE
:2012C200C007C006C004C003C002C00112131FA882AD83D001D002D003D004D006D007E8F8
:2012E20020E01185344F755000854F8375820012131F801A8D008A828B838CF0E8121DF5B3
:20130200A3AA82AB8319054E854E51021270121353855182227C1220B602DCFB22E5827B87
:2013220008C2B5A2B61392B7D2B5DBF5F5F0E5837B08C2B5A2B61392B7D2B5DBF5F58385D2
:20134200F08222E534C40354072437F8A6B0C28122E534C40354072437F9E7FFA2E5921010
:1213620092B5EFA2E4921092B4EF33921092B7D2812253
:20137400AF9174EF5FF59122AF9174EF5FF59190E65D7401F022AF9174EF5FF59190E65D72
:201394007402F022AF9174EF5FF59190E65D7408F022AF9174EF5FF59190E65D7410F022D7
:2013B400AF9174EF5FF59190E65D7420F022C0E0C082C083C007C0D075D000D204AF9174CD
:2013D400EF5FF59190E65D7401F0D0D0D007D083D082D0E032C0E0C082C083C007C0D075FE
:2013F400D000AF9174EF5FF59190E65D7402F0D0D0D007D083D082D0E03232C0E0C082C076
:2014140083C007C0D075D000D205AF9174EF5FF59190E65D7408F0D0D0D007D083D082D00F
:20143400E032D310AF01C3C0D075820012043C120453D0D092AF22C023C0E0C0F0C082C0B6
:2014540083C007C006C005C004C003C002C001C000C0D075D000758255120AC3121436AFCE
:201474009174EF5FF59190E65D7410F0D0D0D000D001D002D003D004D005D006D007D083A9
:20149400D082D0F0D0E0D02332D310AF01C3C0D075820112043CD0D092AF22C023C0E0C0DB
:2014B400F0C082C083C007C006C005C004C003C002C001C000C0D075D000758268120AC374
:2014D40012149DAF9174EF5FF59190E65D7420F0D0D0D000D001D002D003D004D005D006F1
:1314F400D007D083D082D0F0D0E0D02332C2DD323232326D
:201E9C001201000200000040FB0910603901010203010A06000200000040010004030904B5
:201EBC00416C746572610055534220426C6173746572204949004E6F6E6500000300000091
:201EDC000000000000000000000000000000000000000000000000000000000000000000E6
:201EFC000000000000000000000000000000000000000000000000000000000000000000C6
:201F1C000000000000000000000000000000000000000000000000000000000000000000A5
:201F3C00000000000000000000000000000000000000000000000000000000000000030082
:1F1F5C000000000000000000000000000000000000000000000000000000000000000066
:20150700758221120AC390E6A07401F022AE82AF837C007D00C3EC9510ED9511501D8C02F3
:2015270074E02DFBEC2EF582ED3FF583E493F98A828B83F00CBC00DD0D80DA90E00022AE2D
:2015470082AF837B027CE07D0090E0007402F090E00104F08E828F83E493603290E000E0C4
:20156700FA0A0A90E000EAF08E828F83E493FAA3AE82AF838A017A008B828C838DF0E912DB
:201587001DF5A3EA121DF5A3AB82AC8380C690E00022AE82AF838E048F058C828D83A3A3BE
:2015A700E493F510A3E493F5118E828F830215143002049021282230030490214822300088
:2015C700049020F0229020B82230020490212822300304902148223000049020B8229020C3
:2015E700F022AF82BF00028037BF01028036BF02028039BF04028038BF06028037BF080271
:201607008036BF80028019BF8102801CBF8202801BBF8402801ABF86028019BF881E8018BB
:2016270090E6A02290E6A12290E6A22290E6A32290E6A42290E6A52290E6A6229000002254
:2016470090E6B8E0FFBF80028003BF811590E740E4F090E741F090E68AF090E68B7402F0D3
:20166700D322E4BF02010490E6BCE0FEA3E08E821215E9AE82AF838E048F05EE4F7002C317
:20168700228C828D83E0FC7F0030E0047F0180027F0090E740EFF090E741E4F090E68AF001
:2016A70090E68B7402F0D322C32290E6B8E0FF7005121507D322BF022390E6BAE0FEA3E0C8
:2016C700FFEE6002801190E6BCE0FEA3E08E82754700120B008003121507D32290E6B9E0F2
:2016E700F5820205D090E6B8E0FFB40100E433FE601390E6BAE0FDA3E07E00BD0205BE00BB
:2017070002D322C322BF023490E6BAE0FEA3E0FFEE6002802590E6BCE0FEA3E08E821215A2
:20172700E9AE82AF83EE4F60118E828F83E0FD4305018E828F83EDF0D322C32290E6B9E079
:20174700F5820205D090E6BAE0FEA3E0FFFDBD01028017BD02028042BD03028054BD060272
:201767008020BD0702803D021845901E9CE493FD8D10751100901E9C121514AC82AD83021A
:201787001848901EAEE493FB8B10751100901EAE121514AC82AD830218481215D0AC82ADCA
:2017A700830218481215B7121599AC82AD830218485306037F00EE7018901EB8E493FF8F23
:2017C70010751100901EB8121514AC82AD83021848BE010D901EBC121546AC82AD830218F0
:2017E70048BE022A901ED7E493700C901EC3121546AC82AD83804A901ED7E493FF8F107523
:201807001100901ED7121514AC82AD838033BE032A901F59E493700C901ED2121546AC82DE
:20182700AD83801D901F59E493FF8F10751100901F59121514AC82AD8380060215070215D5
:201847000790E6B3EDF090E6B4ECF022120AC390E6B9E0F582120AC390E6BAE0FEA3E08EE9
:2018670082120AC390E6BAE0A3E0F582120AC390E6BCE0FEA3E08E82120AC390E6BCE0A3E0
:20188700E0F582020AC390E6B8E0FF5460601490E6B9E0F5821205D050030219831215075A
:2018A70002198375825312185390E6B9E0FF24F45003021983EF240A83F582EF241083F5F3
:2018C70083E473E2F083FE83830C8312283B69181819181919191919191919121647500376
:2018E7000219831215070219831216B150030219831215070219831216EC500302198312CA
:20190700150702198312174C021983120DC5AF8290E740EFF090E68AE4F090E68B04F080FF
:201927005B90E6BAE0FEA3E08E82120DD1404D121507804890E6BCE0FEA3E08E8275100801
:20194700751100751240120D6F4005121507802C90E740E508F090E68AE4F090E68B04F029
:20196700801A90E6BCE0FEA3E090E6BAE0FDA3E08D488E82120D8B400312150790E6A0E0AD
:06198700FF74804FF02206
:20198D000000000022C3E5829407F582E5839400F5835009858282858282E58222600A7496
:2019AD00FE00001470FDD583F6E5826003D582FD22AE82AF8390E600E0FC7D00EC30E406D6
:2019CD007AB37B0B800EEC30E3067AD77B0580047AE97B028E048F051EBEFF011FEC4D60C5
:0E19ED00098A828B8312199280EA220219BEA7
:2019FB00AF82855260855361855662855763855864855465855566A21192128F82021A412B
:201A1B00AF82855969855A6A855D6B855E6C855F6D855B6E855C6FA211921375700075713C
:201A3B00A68F82021AAFC007C006C005AF8230120CAE618E67AD607E008D688004AE608E94
:201A5B0067EF2FFFF582121C41503EA212E433FD7E0074012DF509E43EF50A90006775F010
:201A7B0040121C7F502374014FF582121C41501985650B85660C8562828563838564F0122D
:201A9B001CED40028007D38004121C58C3D005D006D00722C007C006C005C004C003C0027A
:201ABB00C001C000AF82E4F572F573EF2FFFF582121C414003021BED8570F005F07578018E
:201ADB00757900800BE5782578F578E57933F579D5F0F2E4B5710474018001E4FAC3E57259
:201AFB00956EE573956F4003021BED30130CAE6A8E74AD697E008D758004AE698E74A213CE
:201B1B00E433FD7E0074012DF509E43EF50A90007475F040121C7F4003021BEDC002AD78CD
:201B3B00AE798D108E11856982856A83C007C006C005C003C001C000121E18AA82AC83D03C
:201B5B0000D001D003D005D006D007EDC39AF576EE9CF577E56EC39572FDE56F9573FEC362
:201B7B00ED9576EE9577D002500DE56EC39572F576E56F9573F577E572256BFCE573356CFD
:201B9B00FDAE6D85760985770A8C828D838EF0121C7F503E121C58400280487E00EA7006C3
:201BBB00C3EE9571500A8F82121C4140030E80EDEEB57103C3802CE5762569F569E577355D
:201BDB006AF56AE5762572F572E5773573F573021AF8121C58E56EB57208E56FB57303D3EE
:141BFB008001C3D000D001D002D003D004D005D006D00722D4
:201C0F00C007C00690E678E0FF7E0020E00510140280F190E678E0FF7E0030E203C3800D91
:201C2F0030150990E678E0FFA2E18001D3D006D00722C007AF8290E6787480F090E679EF2C
:201C4F00F0D215121C0FD00722C007C00690E6787440F090E678E0FF7E0020E6F690E67814
:201C6F00E0FF7E0030E203C38001D3D006D00722C007C006C005C004C003C002C001C000E1
:201C8F00AD82AE83AFF0E509450A7003D3803E7B007C00EBB50906ECB50A028024EB2DF8EE
:201CAF00EC3EF98F02888289838AF0121E7BF890E679F0D215121C0F50070BBB00D50C80AD
:201CCF00D2EBB50907ECB50A03D38001C3D000D001D002D003D004D005D006D00722C00729
:201CEF00C006C005C004C003C002C001C00085820D85830E85F00FE50B450C7004D3021D2B
:201D0F00D67401B50B06E4B50C028002800690E6787420F090E679E07B007C0079007A00C9
:201D2F00E9B50B06EAB50C02807AC215121C0F4003021DCA740229F8E43AFFE8B50B0AEFA9
:201D4F00B50C0690E6787420F0740129FEE43AFFEEB50B2CEFB50C2875AF03759AE6759BA4
:201D6F007890E67B7440F0E0AFE0E9250DF8EA350EFDAE0F88828D838EF0EF121DF580189B
:201D8F00E9250DFDEA350EFEAF0F90E679E0F88D828E838FF0121DF509B900010A89038AC6
:201DAF0004021D2F90E678E0FF7E0020E6F690E678E0FF7E0030E203C3800CEBB50B07EC2E
:181DCF00B50C03D38001C3D000D001D002D003D004D005D006D0072263
:2020B80009023700020100C0050904000002FFFFFF00070504020002000705880200020046
:1720D8000904010002FFFFFF0007050202000200070586020002003C
:2020F00009023700020100C0050904000002FFFFFF00070504024000000705880240000092
:172110000904010002FFFFFF00070502024000000705860240000087
:202128000902200001010080320904000002FFFFFF0007050102400000070581024000008E
:1B21480009021B0002010080320904000000FFFFFF000904010000FFFFFF008C
:0300430002200098
:0300530002200088
:202000000213C2000213E90002140E0002140F0002144B000214AF00021E660002150400DB
:20202000021E6F00021DEC00021E7000021DED00021DF400021E1000021E1200021E1600BF
:20204000021E6C0002150400021E9700021DE700021DE800021DE900021DEA00021DEB00FA
:20206000021E7A00021504000215040002150400021E6E00021E7100021E7300021E75002E
:20208000021E7200021E7400021E7600021E7700021E1700021E6700021E6900021E6B001B
:1820A000021E6500021E6800021E6A00021E6D00021E1400021DF100C0
:011DE70032C9
:011DE80032C8
:011DE90032C7
:011DEA0032C6
:011DEB0032C5
:0600C600E478FFF6D8FD0E
:011DEC0032C4
:011DED0032C3
:011DEE0032C2
:011DEF0032C1
:011DF00032C0
:2000A4007900E94400601B7A00901F7B78C0759231E493F2A308B800020592D9F4DAF27594
:0200C40092FFA9
:011DF10032BF
:011DF20032BE
:011DF30032BD
:011DF40032BC
:1B1DF50020F71130F6138883A88220F509F6A8837583002280FEF280F5F022ED
:011E1000329F
:011E1100329E
:011E1200329D
:011E1300329C
:011E1400329B
:011E1500329A
:011E16003299
:011E17003298
:201E1800E510451160467A01E51025E0F510E511334012F511E5829510E583951140030A57
:201E380080E6C3E51113F511E51013F510C3E5829510F5F0E58395114005F58385F082C30C
:0D1E5800E51113F511E51013F510DAE12284
:011E6500324A
:2000CC007800E84400600A7900759230E4F309D8FC78C0E84401600C7902903000E4F0A31F
:0400EC00D8FCD9FA69
:011E66003249
:011E67003248
:011E68003247
:011E69003246
:011E6A003245
:011E6B003244
:011E6C003243
:011E6D003242
:011E6E003241
:011E6F003240
:011E7000323F
:011E7100323E
:011E7200323D
:011E7300323C
:011E7400323B
:011E7500323A
:011E76003239
:011E77003238
:011E78003237
:011E79003236
:011E7A003235
:20006900E58124FCC3C8C0E0C082E608467006E5824583601218E58296F58208E583964265
:1B0089008208E5F0964582D082C8D0E0C822758179121E98E582600302006683
:1C1E7B0020F71430F6148883A88220F507E6A88375830022E280F7E49322E02276
:011E97003218
:041E9800758200222D
:00000001FF
