:020000040106F3
:1000000000000000000000000000000000000000F0
:1000100000000000000000000000000000000000E0
:1000200000000000000000000000000000000000D0
:1000300000000000000000000000000000000000C0
:10040000C01F002181220601811906015522060123
:1004100055220601552206015522060155220601E4
:10042000000000000000000000000000851A060126
:1004300055220601000000000D1A0601413D06018B
:10044000E51B0601E51B0601E51B0601E51B060190
:10045000E51B0601E51B0601E51B0601E51B060180
:10046000E51B0601E51B0601E51B0601E51B060170
:10047000E51B0601E51B0601E51B0601E51B060160
:10048000E51B0601E51B0601E51B0601E51B060150
:10049000E51B0601E51B0601E51B0601E51B060140
:1004A000E51B0601E51B0601E51B0601E51B060130
:1004B000E51B0601E51B0601E51B0601E51B060120
:1004C000E51B0601E51B0601E51B0601E51B060110
:1004D000E51B0601E51B0601E51B0601E51B060100
:1004E000E51B0601E51B0601E51B0601E51B0601F0
:1004F000E51B0601E51B0601E51B0601E51B0601E0
:10050000E51B0601E51B0601E51B0601E51B0601CF
:10051000E51B0601E51B0601E51B0601E51B0601BF
:10052000E51B0601E51B0601E51B0601E51B0601AF
:10053000E51B0601E51B0601E51B0601E51B06019F
:10054000E51B0601E51B0601E51B0601E51B06018F
:10055000E51B0601E51B0601E51B0601E51B06017F
:10056000E51B0601E51B0601E51B0601E51B06016F
:10057000E51B0601E51B0601E51B0601E51B06015F
:10058000E51B0601E51B0601E51B0601E51B06014F
:10059000E51B0601E51B0601E51B0601E51B06013F
:1005A000E51B0601E51B0601E51B0601E51B06012F
:1005B000E51B0601E51B0601E51B0601E51B06011F
:1005C000E51B0601E51B0601E51B0601E51B06010F
:1005D000E51B0601E51B0601E51B0601E51B0601FF
:1005E000E51B0601E51B0601E51B0601E51B0601EF
:1005F000E51B0601E51B0601E51B0601E51B0601DF
:10060000E51B0601E51B0601E51B0601E51B0601CE
:10061000E51B0601E51B0601E51B0601E51B0601BE
:10062000E51B0601E51B0601E51B0601E51B0601AE
:10063000E51B0601E51B0601E51B0601E51B06019E
:100640000A49C0F307230246C0B2CB5C095C0B44E5
:10065000162B08DC0C2043430549C818CB589A4296
:1006600018BF002070470020704700BFD0D406019B
:10067000F8280021F8B506460F461725054C2368D3
:1006800013B139462046B047013D04F10C04F6D1C0
:10069000F8BD00BFF82800210000000000000000A5
:1006A000000000000000000000000000000000004A
:1006B000000000000000000000000000000000003A
:1006C000000000000000000000000000000000002A
:1006D000000000000000000000000000000000001A
:1006E000000000000000000000000000000000000A
:1006F00000000000000000000000000000000000FA
:1007000000000000000000000000000000000000E9
:1007100000000000000000000000000000000000D9
:1007200000000000000000000000000000000000C9
:1007300000000000000000000000000000000000B9
:10074000C3438B4210B50ED332F01F030BD10139D6
:1007500002F014030144102B81EA00043DD004DCB4
:1007600063B1042B32D0002041E0142BFBD11F2CAD
:1007700040E8C0F30CD941E8C0F105E01F2C40E887
:1007800000F305D941E800F11C460B468C42EAD142
:1007900022F01402013A0A2AE5D801A151F822F008
:1007A000FD070601F7070601E907060167070601CD
:1007B00067070601670706016707060103080601C8
:1007C000FD070601F1070601E90706011F2C40E8B5
:1007D00040F3DDD941E840F1D6E71F2C40E880F333
:1007E000D6D941E880F1CFE713F4001FBBD010BD8C
:1007F00013F4801FFAE75B02F9D5B4E713F4002F76
:10080000F4E713F4802FF1E753B94AB9002908BF80
:1008100000281CBF4FF0FF314FF0FF3000F00CB844
:10082000ADF1080C6DE904CE00F008F8DDF804E045
:10083000DDE9022304B07047704700BF2DE9F04F97
:1008400007468C460846099E15463C461946002B2D
:1008500040F0C5808242B2FA82F746D94FB1C7F163
:10086000200E00FA07F3BD4024FA0EFEBC404EEA0B
:10087000030C4FEA15481FFA85FE220CBCFBF8F961
:1008800008FB19C309FB0EFA42EA03439A4528D92B
:10089000EB1809F1FF3004D29A4502D9A9F1020000
:1008A0002B44A3EB0A03A4B2B3FBF8F208FB123308
:1008B00002FB0EFE44EA0344A64514D92C1902F1AA
:1008C000FF3303D2A64501D9931E2C44A4EB0E049A
:1008D00043EA00401EB1FC40002334607360BDE871
:1008E000F08F4846DDE71346F0E702B9FFDE87BB2D
:1008F000831A01214FEA154EAAB2200CB3FBFEFC6D
:100900000EFB1C330CFB02F840EA0343984562D906
:10091000EB180CF1FF3004D2984502D9ACF102007B
:100920002B44A3EB0803A4B2B3FBFEFC0EFB1C3369
:100930000CFB02F244EA0344A2424ED92C190CF1FA
:10094000FF3304D2A24202D9ACF102032C44A41A10
:10095000BEE7C7F1200CBD4000FA07F320FA0CF8FF
:100960004FEA154E24FA0CFCBC404CEA0302ABB231
:10097000B8FBFEFC110C0EFB1C800CFB03F941EADA
:100980000040814523D928180CF1FF3104D281455C
:1009900002D9ACF102012844A0EB090092B2B0FBED
:1009A000FEFC0EFB1C000CFB03F842EA00439845DA
:1009B0000FD9EB180CF1FF3204D2984502D9ACF1F3
:1009C00002022B44A3EB080342EA014192E761468D
:1009D000E2E76246F6E76046A3E76346B7E783428D
:1009E00005D90EB1C6E900700021084677E7B3FAD1
:1009F00083F181B9834201D3BA420AD8BC1A60EBB1
:100A0000030301209C46002E67D0C6E9004C00215C
:100A100065E70846F7E7C1F1200C8B4002FA01F5C3
:100A200022FA0CF420FA0CFB27FA0CF28F401C433C
:100A300000FA01F34FEA144913431FFA84FE1A0C1B
:100A4000BBFBF9F809FB18BB08FB0EFA42EA0B42A4
:100A500092453ED9A21808F1FF3004D2924502D93E
:100A6000A8F102002244A2EB0A029BB2B2FBF9F801
:100A700009FB182208FB0EFE43EA024296452AD9DA
:100A8000A21808F1FF3304D2964502D9A8F1020357
:100A9000224443EA0040A2EB0E02A0FB05939A42D7
:100AA000CE46984602D306D14F4504D20138B9EB61
:100AB000050E63EB040886B1B7EB0E0362EB080783
:100AC00007FA0CFCCB40CF404CEA0303C6E90037E1
:100AD0009DE74046C7E74346DBE73146FFE60000B7
:100AE0000149024801F0ACBFB8A80601C3A806013D
:100AF0002DE970418FB0EFF30584B4B908F097F891
:100B000098B14FF0FF310423CDE90844CDE90A1331
:100B1000CDE90C440F4810494FF400620F4B08AD6B
:100B2000C02603DF0FB0BDE8708100220023CDE9AD
:100B300006234FF0FF330422CDE9033200234FF4A4
:100B40000062CDE9013300930349044B014803F0EF
:100B500067FDE7E700000021C00D0021E10A060162
:100B60000B6801330B60014B1B681847C02700213D
:100B7000014B1860704700BFC027002170B50446C4
:100B8000044E4518AC4200D170BD336814F8010B17
:100B90009847F7E7C027002170B504460D468AB094
:100BA000EFF30586A6B908F042F888B1282231464D
:100BB000684608F0E6F82B4622466946094800F0E8
:100BC000BDF9019B13B1684607F01DFD0AB070BD69
:100BD00000232246009369462B46034800F0AEF9F5
:100BE000F4E700BF39860601610B0601F7B5124F25
:100BF0000A9ABB680546C3F8802000220E4608F01A
:100C000053F8044668B10D4B0D48CDE9006345210A
:100C10002B460C4A07F0D9FFBB68D3F8800007F0D9
:100C2000F2FF28463146FFF7A9FF2046BB68C3F80C
:100C3000804003B0F0BD00BF600300216AD106010F
:100C4000E3A806012EA90601F8B50F4600293ED0FB
:100C500006680122304607F065FD0146044630462D
:100C600007F028FDC3070DD4A423194A19491A48CF
:100C700007F0F3FC3946194807F0EFFCA4211448AB
:100C800007F047FF2146304607F02AFD2518294680
:100C90000022304607F00EFD2D1AAC420DD0AC23D9
:100CA0000B4A0F490C4807F0D8FC39460D4807F0AD
:100CB000D4FCAC21064807F02CFF21463046002228
:100CC00007F014FD2146BDE8F84007F052BEF8BD1C
:100CD0003FA9060160A9060171A906018EA90601B6
:100CE000C6A90601ECA906012DE9F04706681446DD
:100CF000B3684A42B3F5004F2CBF0825042502EA29
:100D0000010731EA02021ED0BD4228BF3D46B94666
:100D1000CF1B07F1FF3A1AEA070F0ED034494FF400
:100D20009C73344A344807F098FC344807F095FC2B
:100D30004FF49C712F4807F0ECFE74B94FF0000996
:100D40004846BDE8F087A94204D82146BDE8F047EF
:100D500007F051BE4FF00009DBE7B068B0EBD40FED
:100D6000ECD93919491B07F0E7FC0146304607F07A
:100D70003EFD80460028E1D0B36809EBC005B3F51D
:100D8000004F2CBF082304231D44354455447F42A3
:100D90002F40A7EB09094946304607F0C3FC4C44F5
:100DA000073424F00704A41B804507464FEAE404F7
:100DB00008D202464146304607F053FD41463046D0
:100DC00007F094FD3946304607F08AFC38448442E7
:100DD00008D239463046224607F043FD21463046C8
:100DE00007F084FD01223946304607F07FFCA7E773
:100DF00028AA06013FA9060171A9060143AA060116
:100E0000B2F5802FF8B507460D46164612D2042AD1
:100E10000ED844494FF4F173434A444807F01DFC8F
:100E2000434807F01AFC4FF4F1713F4807F071FE98
:100E3000042200E00822B61AEC1D354424F0070411
:100E400025F007052D1B172D4FEAD5060ED8394979
:100E500040F2EB13344A354807F0FFFB344807F003
:100E6000FCFB40F2EB11304807F053FE00233C60DE
:100E70003146E3603046A66007F067FC012185003B
:100E80000746304607F058FC1B35ED082B18B342D7
:100E90000ED9294940F2FB13234A244807F0DDFB11
:100EA000234807F0DAFB40F2FB111F4807F031FE40
:100EB0000023194604F110029F422EDA2A462046EA
:100EC000002107F02BFC002320461A46194607F0A4
:100ED000FCFB771B19462046012207F007FC3A4627
:100EE000294607F01BFC2B4600222946204607F026
:100EF000ECFB3146204607F011FC3B4631462046CC
:100F0000002207F0E2FB31462046012207F0EEFB0B
:100F10002946BDE8F84007F0E9BC42F8041B01335C
:100F2000CAE700BF60AA06013FA9060171A9060130
:100F300081AA06019AAA0601C3AA06012DE9F04F6B
:100F40008B4692461C46002591B002909AF800000C
:100F500008B928465FE325280AF1010707D059465A
:100F6000029B98470028C0F25683013512E21822EE
:100F700000210AA807F005FF9AF80130252B78D048
:100F800000221046964694461646394617F8013B0D
:100F90002B2B00F09D8000F29480202B00F09B8092
:100FA000232B00F09B802EB19DF8306046F00406A4
:100FB0008DF83060BCF1000F05D09DF8306046F030
:100FC00008068DF83060BEF1000F05D09DF8306046
:100FD00046F010068DF8306028B19DF8300040F0E2
:100FE00020008DF830002AB19DF8302042F04002F8
:100FF0008DF830209DF8302002F04400442803D1C1
:101000006FF386128DF830209DF830202A2B42F0A5
:1010100080028DF830207BD19DF831204B1C42F0AE
:1010200001028DF831201A782E2A0CBF01210021EF
:101030009DF8312061F341028DF8312074D15A7846
:101040002A2A6AD000210A260133184610F8012BFB
:10105000A2F13007092F40F28E809DF830200E91CA
:10106000C2F3400040EAD17161F341028DF83020B3
:101070005AE00AF102078DF833309DF83130D90774
:1010800040F1498154F8049BB9F1000F07DA9DF84B
:101090003020C9F1000942F004028DF830205A07CF
:1010A00040F1428154F8048BB8F1000F80F2418185
:1010B0009DF831306FF341038DF831304FF0FF3838
:1010C00037E12D2B0CD0302B7FF46DAF01225CE784
:1010D0004FF0010C59E74FF0010E56E7012054E79D
:1010E000012652E733460CFB0202303A1E4616F840
:1010F000010BA0F13007092FF4D9994293D09DF844
:1011000030100D92D20F62F341018DF830108AE752
:101110000B4600224FF00A0CE8E79DF8312002331D
:1011200042F004028DF831201F4617F8012B6C2A7B
:1011300041D025D8682A2BD06A2A46D04C2A4CD0D8
:101140001F4617F8012B9DF83130782A8DF833208F
:1011500000F2D980572A4DD8412A03D0453A022AB5
:1011600000F2D18004229DF8323062F302038DF840
:10117000323001239EE006FB01210346303964E74B
:10118000742A26D07A2ADBD106229DF831300DE070
:101190005A78682A9DF8312006D1012161F3C602F0
:1011A0008DF831209F1CCCE71346022262F3C60360
:1011B0008DF83130C5E75A786C2A9DF8312001D17D
:1011C0000421EBE713460322F0E705229DF83130B6
:1011D000ECE707229DF83130E8E7BDF8303023F422
:1011E000F04323F0020343F4804343F00203ADF8DD
:1011F0003030A6E7A2F15801202900F2848001A036
:1012000050F821F0C9120601071306010713060161
:10121000071306010713060107130601071306014A
:1012200007130601071306016511060107130601DE
:10123000C912060189120601651106016511060130
:10124000651106010713060189120601071306013D
:10125000071306010713060107130601D112060141
:10126000C9120601ED120601071306010713060154
:10127000ED12060107130601C91206010713060144
:1012800007130601C912060101209DF8321003F070
:10129000780360F30201402B8DF8321002BF9DF8F5
:1012A000301041F001018DF83010632A31D1003B3C
:1012B00018BF01239DF83020C2F340010B4363F3B4
:1012C00041028DF83020D8E602209DF83210DEE78A
:1012D00003219DF8322003F07803A3F1400061F36D
:1012E000020243428DF832204341E3E703219DF897
:1012F000322013F0780F61F3020214BF01230023A0
:101300008DF83220D6E79DF8303043F001038DF898
:1013100030300023CEE79DF93020002AACBF4FF0DB
:10132000FF39DDF83490BAE69B077FF5C7AEDDF8EC
:1013300038800023CDE90D339DF832309DF831100F
:1013400003F00703012BC1F3C30138D1CB1E042BDB
:1013500022D8DFE803F003090921210054F8043BF7
:10136000DA17CDE90A3206E0073424F00704F4E87E
:101370000223CDE90A239DF8303013F0030656D03E
:101380003B4652465946029807F0ADFB0028C0F292
:1013900042810544BA46D9E554F8043B01294FEA95
:1013A000E372CDE90A3205D19DF828300A93002373
:1013B0000B93E0E70229DED1BDF92830D0E7022BFC
:1013C00023D1CB1E042B13D8DFE803F0030A0A1243
:1013D000120000232268201D0A920B930446CAE7DC
:1013E000E01D20F00700F0E80223CDE90A23F5E72D
:1013F00054F8043B01290A934FF000030B93D3D018
:101400000229B8D1BDF82830D0E7042B09D1E31D5B
:1014100023F0070303F10804D3E90023CDE90A23ED
:10142000A9E7032B04BF54F8043B0A93A3E79DF8F4
:1014300033007828AED8622822D825283FF48FAD13
:101440005828A7D1DDE90A010DF1260300930CAA63
:1014500004AB07F002FB8246B8F1000F0DF1260045
:101460000CDB9DF83020A0EB0A036FF38612984541
:101470008DF8302002D9A8EB03030D9380463DE0A0
:101480006338152886D801A252F820F00D15060100
:1014900071150601951306019513060195130601B2
:1014A00095130601711506019513060195130601A2
:1014B0009513060195130601CB1506019915060132
:1014C0009D1506019513060195130601E514060105
:1014D000951306019915060195130601951306014A
:1014E00099150601B8F1000FDDF828A00ADB414686
:1014F000504607F026FC00260AEB0008BAF1000F60
:101500000CD147E7504607F015FCF4E700260A9B8C
:101510000DF1100A8DF810300DF11108A8EB0A0337
:1015200006B101339DF83220D00668D50233520649
:101530000D9948BF0E9A0B4448BF9B18B9F1000F94
:1015400076DD9DF83020A9EB0309C2F380030393F5
:1015500053076DD4500661D546B159463046029BBB
:101560009847002857DB039B01351E46302356E081
:101570001E070FD413F0100618BF2026DDE90A233A
:10158000002BBFF65FAF524263EB43032D26CDE93C
:101590000A2357E72B26F1E7002653E70A9840B3C2
:1015A0000DF126030093002104AB0CAA07F055FAB5
:1015B000BDF83230824603F0EF0343F4F04343F0CA
:1015C00010030026ADF8323046E70A9B07293FF6A4
:1015D000E1AEDFE801F00C04060C08080C0C1D70ED
:1015E000D8E61D80D6E6EA17C3E90052D2E61D60B0
:1015F000D0E6DFF8C8A006460AF105088EE7110715
:1016000048BF013393E7184603935946029B984716
:101610000028039B04DA11B0BDE8F08F20234D446D
:101620004A46002AA5EB090109F1FF39EBDC0D461A
:1016300036B159463046029B98470028EBDB01350E
:101640009DF83230D90601D41A0706D55946302004
:10165000029B98470028DEDB01359DF83230DB061F
:1016600007D559469DF83300029B98470028D2DBE6
:1016700001350D9E2E44731B002B16DC434652464B
:101680005946029807F02FFA0028C4DB0544A94404
:10169000A9EB0503002B7FF77DAE59462020029B66
:1016A00098470028B7DB0135F2E759463020029B06
:1016B00098470028AFDB0135DDE700BFEEAA060141
:1016C00037B501220421044607F0EEFA002814BFC2
:1016D0000125002509D0064B452101930423054A25
:1016E00000930548234607F070FA284603B030BD42
:1016F000F4AA0601FAAA0601E3A80601F8B50C4F00
:101700001546BB68089A0446C3F880200E46FFF7CA
:10171000D7FF48B932462B46204607F00EFA002282
:10172000BB68C3F88020F8BD6FF00C00F7E700BF7E
:101730006003002138B50A4D069AAB680446C3F829
:101740008020FFF7BDFF38B9204607F019FA0022C4
:10175000AB68C3F8802038BD6FF00C00F7E700BF1E
:1017600060030021044608B54FF02002EFF3118317
:1017700082F31288BFF36F8F07F0DCFE204607F07C
:10178000E2FE034806F069FF00F06AF8FCE700BFDC
:101790000FAB06012DE9F74F16461446CDE90001BF
:1017A000DFF89080DFF89090019B9D192D1B14B9F4
:1017B00003B0BDE8F08F009B4046013B032B96BF72
:1017C0001E4A3F21D15C06F048FF4FF0000B1C4F32
:1017D0005C4526D9384615F80B1006F03EFF0BF194
:1017E000010BBBF1080FF3D1164806F036FF0027B6
:1017F000DFF854A0DFF854B0BC4216D9E95D584672
:10180000A1F120025F2A28BF2E2106F026FF013712
:10181000082FF1D10E4806F020FF072CC8D9083C4C
:10182000C2E7484606F019FFD9E7504606F015FF13
:10183000EDE700BF58AB060163AB06016CAB0601D8
:101840005DAB060167AB060165AB060169AB06013E
:10185000BDC60601014910220A60704710ED00E084
:1018600072B6404080F31188BFF36F8FBFF34F8F84
:1018700030BF62B6BFF36F8F704700BF37B5054604
:101880000C46C9B18B6810480093D1E9002345216B
:1018900007F09BF9636945210093D4E903230B48C2
:1018A00007F093F94521E269094807F08EF94521CF
:1018B000A269084807F089F92146284603B0BDE827
:1018C000304002F099BC00BF70AB0601A4AB06012A
:1018D000D8AB0601ECAB060143B2002B08DB0122BA
:1018E00000F01F0002FA00F0024A5B0942F82300F0
:1018F000704700BF00E100E070B54C1C072C0546A6
:101900000E460FD95723104A1049114806F0A5FE7C
:101910003146104807232A4606F09FFE57210A4801
:1019200007F0F7F86BB2002BACBF03F160430A4B32
:101930004FEA4414E4B2ABBF03F5614305F00F0571
:1019400083F800435C5570BD1FAC060155AC060121
:1019500071A9060170AC060114ED00E0034808B55A
:1019600006F07BFE0020FFF7FDFE00BFB0AC0601D5
:10197000014B024A1A607047C42700215D19060115
:1019800008B5034B1B689847BDE8084000F0DEB976
:10199000C427002130BFFFF7FDBF00BF0B4A08B5C9
:1019A0000B4B22F07F029A60BFF34F8FBFF36F8F14
:1019B000D3F8882022F47002C3F8882002F0C4FC17
:1019C00005F006FB00F050FC02F0C8FC0004060124
:1019D00000ED00E00A4A0B4993680968C3F88800E3
:1019E000C3F88C1008494B6843F080534B600023C8
:1019F00083F31188BFF36F8F9368D3F88C0070471F
:101A00006003002134A2060100ED00E01B498A6852
:101A100082F891E04FF030001044EFF3098C80E839
:101A2000F01F202080F31288BFF36F8F144F4FF008
:101A300000668A698A603E6092F991E0D2F8880077
:101A40000023C2F8883080F3118804B5104600F0F6
:101A5000A9FCBDE80440D2F89000EFF3148323F012
:101A6000010343EA000383F31488BFF36F8F02F18D
:101A7000300090E8F01F8CF3098870476003002164
:101A800004ED00E01EF0040F0CBFEFF30880EFF34D
:101A90000980816911F8021CEFF31482032908D030
:101AA00012F0010F01D10229FFD001B507F09AF819
:101AB00001BDD0F818800D4981614FF4B27C6645B4
:101AC00002D3066040F2631609488068D0F890108F
:101AD00021F00101C0F89010BFF34F8F22F00102F6
:101AE00082F31488BFF36F8F70470000911C0601CA
:101AF000600300210C4C9846A36883B50546D86F57
:101B000017460E4606F050FAA4683146D4E91A3258
:101B10009B1AC4F894000193636E3A4600932846DA
:101B2000434600F073F800BF6003002130B5017B2D
:101B300042F8203C039B104D42F81C3C049B11F0E2
:101B4000040F42F8183C059B0C4918BF294642F87F
:101B5000143C4FF0807321F0010142F8043C42F83C
:101B6000081C0023A2F120044FF43C420465C0E9A4
:101B70002423C0F8883030BDF51A060175860601A9
:101B80000C4B70B59D6806460C465DB1D5F8943097
:101B900063B107F04CF838B9163603D1D5F8940084
:101BA000A04200D8002070BDE86FF9E71636F9D1E1
:101BB000686EF5E76003002108B5094B0D46986093
:101BC000144600F0EFFB204685F30988002163B638
:101BD00081F31188BFF36F8F0022002306F04AFDC6
:101BE0006003002101B5EFF30580A0F110004FEA7A
:101BF000C0000449014409C99847BDE801400249B1
:101C000008470000C49B06014D1D060186461E487C
:101C10008068D0F894004FF4806C6044EC4680F308
:101C200009880EB52DE901101748806800F0BAFB4D
:101C3000BDE80110DCF80000DCF804C02DE901105B
:101C40006246494007F09DF8BDE801106044BDE8D8
:101C50000E4080F30988704603B40B488068D0F8C2
:101C6000901051F00101EFF3148C5CF0010CC0F8FE
:101C70009010BFF34F8F8CF31488BFF36F8F03BCAA
:101C8000DFF808C060470000600300217586060188
:101C9000DFF88CC0DCF808C0DCF894C00CF5806C70
:101CA000BCF1080CCCF800D0CCF804E08CF3098827
:101CB00040F2631C664503D1EC462DE9305002E04A
:101CC000EC462DE93010DFF85CC04FEA8606B444DC
:101CD000DCF800C0E047DDF810E0DDF80CC08CF364
:101CE000098803B40E488068D0F8901051F00101C3
:101CF000C0F89010BFF34F8FEFF3148C5CF0010C21
:101D00008CF31488BFF36F8F03BC4FF000014FF0CA
:101D100000024FF00003C4465CF0010C6047000075
:101D20006003002128A3060137B54FF0FF3301936C
:101D30000023C55C1DB18B4201D00133F9E7184681
:101D4000002101910199116003B030BD044B9968E5
:101D50009869884203D003494FF080520A60704767
:101D60006003002104ED00E010B5204C452120481F
:101D700006F02BFFA36A990103D545211D4806F003
:101D800024FFA36ADA0103D545211B4806F01DFF95
:101D9000164CA36ADB0203D54521184806F015FF4F
:101DA000A36A180303D54521154806F00EFF0F4C12
:101DB000A36A590303D54521124806F006FFA36A1A
:101DC0009A0303D54521104806F0FFFE074CA36A8D
:101DD000DB0303D545210D4806F0F7FEA36A00207A
:101DE0006FEA03436FEA1343A36210BD00ED00E006
:101DF000CCAC0601E9AC060101AD060120AD06013F
:101E00004FAD060172AD06019CAD0601BBAD0601EA
:101E10002DE9F041404C05460E4640484521174605
:101E200006F0D3FEA36AD80603D545213C4806F048
:101E3000CCFEA36A190703D545213A4806F0C5FE32
:101E4000354CA36A9A072FD46FF01508324CA36A59
:101E5000DE0703D54521344806F0B7FEA36A9C0689
:101E600003D54521314806F0B0FE2B4EB36AD806A3
:101E70002FD4B36A99072CD40024274A936A43F0DD
:101E8000FF0393622A4BAA6923F00103934240D8CF
:101E9000284B23F0010393423BD9274BAB6101232D
:101EA00020463B70BDE8F0814521244806F08DFEB8
:101EB000D4F83480A36A1B06C6D542464521204883
:101EC00006F083FE002EC1D0A36A23F08003A36234
:101ED000BCE773681A05CFD529464046FFF750FE88
:101EE000044618B180F309880224C6E7B36ADB060A
:101EF000C2D540F24913134A1349144806F0ADFB0A
:101F0000134806F0AAFB40F249110E4806F001FE04
:101F1000B3E70023C4E700BF00ED00E0EBAD06012E
:101F200006AE06013EAE06018EAE0601B2AE060159
:101F3000331D0601351D0601451D060156AE06017D
:101F400073AE0601E6AE060120AF060171A90601D7
:101F50006AAF0601F8B52C4C05460F462B484521C3
:101F6000164606F032FEA36AD90403D54521284857
:101F700006F02BFEA36A1A0503D54521254806F075
:101F800024FE214CA36A9B0510D52348452106F069
:101F90001CFEA26BA36A180408D545211F4806F051
:101FA00014FE1FB1A36A23F40043A362164CA36A74
:101FB000590503D545211A4806F007FEA36ADA053C
:101FC00019D54521174806F000FE0F4A936A43F4DD
:101FD0007F439362144BAA6923F00103934210D804
:101FE000124B23F0010393420BD9114BAB61012338
:101FF00000203370F8BDA36A9B04E6D545210D4847
:10200000E1E70023F4E700BF00ED00E08DAF06013B
:10201000A8AF06013EAE0601BEAF0601DCAF060169
:10202000F6AF060116B00601331D0601351D060187
:10203000451D0601B2AE06012DE9F0436F4B054682
:10204000D3F804808946144600268BB0C8F30807ED
:1020500086F31188BFF36F8F02F07F43B3F17F4F98
:1020600011D1D0070FD4510603D4220708D401267A
:1020700008E04521624806F0A8FD14F0040400D0F1
:102080004D4600267DB94FF47C735E4A5E495F4839
:1020900006F0E3FA5E4806F0E0FA4FF47C71594826
:1020A00006F037FD00250024FB1E8DF80740092BA4
:1020B00000F29180DFE803F0058488648F8F8F8FB2
:1020C0008F8C4E4F4521534806F07FFD8DF8074019
:1020D000FC6A14F0020405D045214F4806F075FD56
:1020E000002406E0FB6A002B1DDA45214B4806F070
:1020F0006CFD9DF807309BB92022294602A806F006
:1021000035FE099B002E73D0C3F3080222B96FEA93
:1021100053236FEA43230993204602A9FFF7AEFB3E
:102120000BB0BDE8F083FB6A5B003CD545213C4821
:1021300006F04BFDAB6933F8022C4DF602739A4260
:1021400006D145212A68374806F03FFD2C68D0E7C4
:1021500097F828303BB101210DF107022846FFF71F
:1021600057FE0446C5E797F8293033B101210DF138
:1021700007022846FFF7EEFEF3E77B8D9BB213B113
:10218000FFF7F2FDEDE7284940F2C2231D4A1F4840
:1021900006F063FA254806F060FA40F2C2211948B9
:1021A00006F0B7FCA5E7204940F2C623154A1748B8
:1021B00006F053FA1E4806F050FA40F2C621EEE748
:1021C00000210DF10702C9E700210DF10702D0E758
:1021D0004521184882E7184918F4F87F174A18482B
:1021E00008BF0A46A7F11003452106F0EEFC77E789
:1021F00023F4FF7323F001038DE700BF00ED00E03F
:1022000061B00601E6AE060189B0060171A90601BA
:102210009CB00601DAB00601F6B006011CB1060159
:102220002FB1060153B10601EFB7060174B10601E3
:1022300098B10601C8B1060133B0060148B00601E5
:10224000F1B10601024A536943F01003536170472C
:1022500000ED00E0EFF30880EFF3098101B572466D
:10226000FFF7EAFE01BD00BF002320210348C2188A
:102270000133802B82F80013F9D1704700E100E0B0
:10228000002080F31488BFF36F8F002080F30A884A
:1022900080F30B8800200E490860BFF34F8F0D4874
:1022A00080F3088800F02CF8202080F311880A4879
:1022B0004FF40061401880F30988EFF31480022185
:1022C000084380F31488BFF36F8FFFF767FB0000AC
:1022D00094ED00E0C01F0021C00500210023184636
:1022E0000649D1F89020C2F30722934200D17047EB
:1022F000C1F89830C1F8A0000133F6E700ED00E026
:1023000010B572B6002484F31388FFF7E7FF234665
:102310004FF0FF300B4A03F120010133102B42F83C
:102320002100F8D100234FF0FF3003F160010133A9
:10233000102B42F82100F8D162B6BFF34F8FBFF3E4
:102340006F8F10BD00E100E0064B9B68834207D110
:10235000EFF3058323B1044A536843F0805353607D
:1023600004F092BC6003002100ED00E01FB5094CB1
:10237000094A23460121094800F0CEF800230393BF
:10238000074B0121E41A01A80193029400F0A4F97B
:1023900004B010BD00002021000000216CA0060147
:1023A000000000212DE9F84F846F064674B32546DE
:1023B00094F8C87004F1C0090024DFF8A480DFF8A5
:1023C000A4B0DFF8A4A06B68EBB1102C0CD9514677
:1023D000E0235A46254806F040F9254806F03DF925
:1023E000E021584606F095FB0C236343296808EB6F
:1023F000030248F803106B6801345360AB68013F77
:102400009360E4B202D00C35A945DCD1D6F8943003
:10241000FBB1D6E91935F76F1D44102CA5EB070564
:102420000CD91149F6230F4A104806F016F9104846
:1024300006F013F9F6210B4806F06BFB0C236343FF
:1024400007490134CA18CF500A4B55601868E4B2E6
:1024500090602146BDE8F84F014800F0B3B900BFD5
:10246000E801002109B2060145B2060171A9060181
:1024700067B2060144A0060138B5134CD4F8903079
:10248000C3F30723013B984207D9024645210F4871
:1024900006F09BFB6FF0150038BD0B680D7A23F03A
:1024A0001F0205F01F031A43CB686D0923F01F03B9
:1024B00043EA450343F00103C4F89800C4F89C20A4
:1024C000C4F8A030E8E700BF00ED00E099B20601D3
:1024D0000522044BC3F89420BFF34F8FBFF36F8FD7
:1024E000704700BF00ED00E0BFF35F8F0022024B9A
:1024F000C3F89420704700BF00ED00E0044B054A8C
:10250000D3F890301078C3F30723181A704700BF30
:1025100000ED00E0780400212DE9F04F89460646E1
:102520004FF0000ADFF89081644D98F8004087B0C2
:10253000CA4506DB88F8004016342BD007B0BDE84A
:10254000F08FD6F804B0BBF1000F54D0BBF11F0FD1
:1025500018D91BF01F0F15D13368DA0612D11846AF
:10256000019306F069FB019B07460BEB0300013862
:1025700006F062FB874220D06FF015073A464521EE
:102580004F4802E0524645214E4806F01EFBEA2322
:1025900088F8003040F211134B4A4C494C4806F081
:1025A0005CF849464B4806F058F840F2111146488D
:1025B00007B0BDE8F04F06F0ACBA17F1160FDDD04A
:1025C000BC42DBDDC5F89870D5F89C00C5F8987062
:1025D000D5F8A03020F01F0043F01F0BD6E90031E2
:1025E0001944984201F1FF321DD1934507D131467C
:1025F000F8B206F05BFB0AF1010A0C3698E7C5F861
:102600009870D5F89C3021F01F0103F01F030B4395
:102610003146C5F89C30E0B206F048FB10F1160FC9
:10262000B5D0441CE7E7013B9345E0B223F01F031C
:102630000AD1C5F89870D5F8A020314602F01F02E3
:102640001343C5F8A030E7E70192C5F89870D5F8B4
:10265000A01001F01F010B43C5F8A030314606F071
:1026600025FB10F1160F92D0C5F89870D5F89C1084
:102670009DF81030019A61F304038DF81030D5F8FD
:10268000A0309DF810105B0863F347118DF810100F
:10269000D6E900310B4402930BF1FF3B23F01F03FB
:1026A0005B449A1A013022F01F0202A9C0B20592BF
:1026B000FFF7E2FEB2E700BF7804002100ED00E082
:1026C00073B306014BB30601C4B20601EFB70601AE
:1026D00071A906019BB306012DE9F74F324E8946D9
:1026E00005464FF00008B346304FC84502DB03B043
:1026F000BDE8F08FD5F804A0BAF1000F4FD02968DB
:102700000846019106F098FA019904460AEB010087
:10271000013806F091FA84424FF01402244B18D08D
:102720006FF0150302FB08F84BF8083040F2211354
:10273000204A2149214805F090FF4946204805F0EC
:102740008CFF40F221111B4803B0BDE8F04F06F0AA
:10275000E0B914F1160F3460E8D01978A142E5DD34
:1027600002FB08B0C7F89840C7F89840D7F89C40DB
:1027700000F10801007B64F304000871D7F8A000A1
:102780000C79400860F347140C71D7F89C1021F0C5
:102790001F017160D7F8A01021F01F01316108F10D
:1027A000010814360C35A0E7B402002100ED00E06A
:1027B00078040021C4B20601EFB7060171A9060131
:1027C000C7B3060170B5254B0E461B780446194663
:1027D0000025234AD2F89000C0F3072081420BDB8A
:1027E00020490968C2F89810C2F8A0500025B542E7
:1027F00008DB16330FD070BDC2F89810C2F8A05095
:102800000131E7E762682AB31F2A16D82A46452114
:10281000154806F0DAF94FF49873144A144915482C
:1028200005F01BFF3146144805F017FFBDE8704066
:102830004FF498710D4806F06CB9D106E6D12268C4
:10284000D206E3D12146D8B206F030FA10F1160FC5
:10285000E1D0431C01350C34C9E700BF78040021E6
:1028600000ED00E0B40200214BB30601C4B2060142
:10287000EFB7060171A90601F6B3060170B5234C46
:102880002349D4F890300D68C3F307239D4216D92D
:102890004FF4A4731F4A2049204805F0DEFED4F807
:1028A000902029461E48C2F3072205F0D6FE19489B
:1028B0004FF4A47106F02DF94FF0FF3070BD0020E9
:1028C000FFF712FE174B4A68C4F8C030854205D1A5
:1028D000154B00201D70FFF7FBFDEFE71368167A1C
:1028E00023F01F0106F01F031943D368760923F074
:1028F0001F0343EA460343F00103C4F89800103273
:10290000C4F89C100130C4F8A030DFE700ED00E00F
:1029100078A00601C4B20601EFB7060171A906014D
:1029200023B40601AAFF440078040021014B18607B
:10293000704700BFC82700210239012902D8034B84
:102940001B6818474FF0FF30704700BFC8270021B1
:1029500010B5064C049AA368C3F88020FFF7ECFF7B
:102960000022A368C3F8802010BD00BF60030021CF
:102970002DE9F843023B012B06460C46154615D8B7
:10298000B2B181B11746DFF82C8006EB0409D8F804
:10299000003016F8010B9847013003D0B145F6D14D
:1029A000013FF2D1EC1B2046BDE8F8830024FAE792
:1029B0001446F8E7C82700212DE9F3471546DFF84C
:1029C0006C800C9A9946D8F808300746C3F88020E6
:1029D000A5FB01A20C4672B9514606F065F9064600
:1029E000B0B1134B4521CDE900A3124A3B46124832
:1029F00006F0EBF806E000912B4645210D4A0F4802
:102A000006F0E3F8D8F80830D3F8800006F0FBF8B9
:102A10004B462A4621463846FFF7AAFFD8F8083029
:102A2000C3F8806002B0BDE8F08700BF60030021FA
:102A30006AD1060190B40601E3A8060157B4060165
:102A40000FB407B504AB53F8042B022104480193DB
:102A5000FEF774FA03B05DF804EB04B0704700BFF2
:102A6000C98D060108B50848084B186006F06DFDD1
:102A700038B10748FFF75AFF0548FEF779F80020FC
:102A800008BD6FF01200FBE7349B0601C80200216D
:102A9000952A06010A2838B50446074D04D128684E
:102AA00083680D215B68984728688368E1B25B689A
:102AB0009847204638BD00BFC802002170B51646B1
:102AC0000C46056961B922492423224A224805F0AF
:102AD000C4FD224805F0C1FD24211E4806F019F866
:102AE000636863B91E4925231A4A1B4805F0B5FDE2
:102AF0001C4805F0B2FD2521164806F00AF86B685F
:102B00005BB100229C4212D12368A96852B9A1424C
:102B10006B6000D1AB60002323606EB9002070BDF4
:102B20000B46EFE7A142136008BFAA60F3E71968FC
:102B30001A460029F4D13EB16B68A86823606C6026
:102B40000028EBD1AC60EAE76FF01500E7E700BFC3
:102B5000E1B40601B4B4060171A90601EAB40601A4
:102B6000F9B406010BB50601436802695B682DE9FB
:102B7000F0479F6B546805469F6314B32668DFF8DF
:102B80004880DFF84890DFF848A0A3681F4214D0BF
:102B9000636863B9494645234246504605F05DFDEA
:102BA0000C4805F05AFD4521404605F0B2FFD4E936
:102BB0000132214628463A40984716B134463668D5
:102BC000E3E7BDE8F08700BFB4B4060122B5060113
:102BD00071A906010BB506012DE9F04F0546DFF896
:102BE000A89185B0D9F808301446109ACFB2C3F82E
:102BF0008020FDF725FD294606F027FA002800F081
:102C0000B3804521614A624805F0DFFFD9F80830FA
:102C1000D3F8800005F0F7FF6B6814F4FC2FD5F8AB
:102C200010A003930ED05B4940F2E6235A4A5B485A
:102C300005F013FD5A4805F010FD40F2E621564814
:102C400005F067FF04F03003302B0ED1554940F2F8
:102C5000E923514A514805F000FD534805F0FDFCB9
:102C600040F2E9214C4805F054FF40F20223234092
:102C7000022B0ED14D4940F2ED23474A474805F05B
:102C8000ECFC4B4805F0E9FC40F2ED21424805F030
:102C900040FF04F00603042B0BD146493F4840F2A5
:102CA000F1233D4A05F0D9FC40F2F1213A4805F004
:102CB00030FF14F4406622D0A3050ED43E494FF4F1
:102CC0003D73354A354805F0C8FC3C4805F0C5FC65
:102CD0004FF43D71304805F01CFFB6F5406F0ED142
:102CE00037494FF43E732C4A2C4805F0B6FC354862
:102CF00005F0B3FC4FF43E71274805F00AFFE004ED
:102D000004D51EB1E10748BF84F440640126039B4B
:102D1000BE401B6824F4805B1E420ED12A4940F25B
:102D200005331D4A1D4805F098FC284805F095FC20
:102D300040F20531184805F0ECFEDAF80030E20701
:102D40004CBF1E4323EA06065A46D8F800303946DF
:102D50002846CAF8006098470022D9F80830C3F81E
:102D6000802005B0BDE8F08FD5F80880D8F8003095
:102D7000002B7FF451AF4521154B044A1548CDF87F
:102D8000008005F022FF41E7600300217DBC0601C1
:102D90004AB50601FCB50601D2B5060171A90601C6
:102DA00059B606017DB60601B6B60601F3B60601B0
:102DB00027B7060179B70601ACB70601F1B70601DE
:102DC0002CB806016DB8060199B80601D7B80601FE
:102DD00076B5060184B50601F7B504461E4E0A9A7B
:102DE000B3680D46C3F88020FDF72AFC214606F0A3
:102DF0002CF9D8B14521194A194805F0E6FEB36807
:102E0000D3F8800005F0FFFE01220421284605F0DA
:102E10004BFF0746B0B1134B4521019304230F4AE2
:102E2000009311482B4605F0D0FEE8E7A3685A68E6
:102E3000002AE9D1009345210C4B084A0C4805F0C3
:102E4000C4FEDCE7A368294620465B689847B36860
:102E5000C3F8807003B0F0BD6003002164BC0601BC
:102E60004AB50601F4AA0601E3A80601E9B806017D
:102E700084B506012DE9F7430446184E9046B36821
:102E80000C9A0F46C3F88020FDF7DAFB214606F0C6
:102E9000DCF8054688B14521114A124805F095FE37
:102EA000B368D3F8800005F0AEFE009345210E4BC9
:102EB0000B4A0E4805F089FEF2E7A368D3F80890A4
:102EC000B9F1000FF1D0424639462046C847B368F1
:102ED000C3F8805003B0BDE8F08300BF6003002159
:102EE00044BC06014AB50601F6B8060184B50601E0
:102EF000F7B50446154E0A9AB3680F46C3F880200A
:102F0000FDF79EFB214606F0A0F8054688B1452155
:102F10000F4A104805F059FEB368D3F8800005F059
:102F200072FE009345210C4B094A0C4805F04DFEFA
:102F3000F2E7A368DA68002AF3D0394620469047C2
:102F4000B368C3F8805003B0F0BD00BF6003002138
:102F500026BC06014AB506010AB9060184B5060178
:102F6000F7B50446154E0A9AB3680F46C3F8802099
:102F7000FDF766FB214606F068F8054688B1452155
:102F80000F4A104805F021FEB368D3F8800005F021
:102F90003AFE009345210C4B094A0C4805F015FEFA
:102FA000F2E7A3681A69002AF3D039462046904711
:102FB000B368C3F8805003B0F0BD00BF60030021C8
:102FC00006BC06014AB506011CB9060184B5060116
:102FD000F7B50446154E0A9AB3680F46C3F8802029
:102FE000FDF72EFB214606F030F8054688B1452155
:102FF0000F4A104805F0E9FDB368D3F8800005F0EA
:1030000002FE009345210C4B094A0C4805F0DDFDFA
:10301000F2E7A3685A69002AF3D039462046904760
:10302000B368C3F8805003B0F0BD00BF6003002157
:10303000E9BB06014AB5060130B9060184B50601AF
:103040002DE9F74F0546DFF86C911446D9F80830A2
:103050000E9ACEB2C3F88020FDF7F2FA294605F0A9
:10306000F4FF002800F096804521534A534805F0AC
:10307000ACFDD9F80830D3F8800005F0C4FD002B72
:1030800032D14F4940F295234E4A4F4805F0E5FAB8
:103090004E4805F0E2FA40F2952122E02303D5F8EC
:1030A00004A0D5F810B00BD54949474840F28F230A
:1030B000444A05F0D2FA40F28F21424805F029FD3A
:1030C00004F4C043B3F5C04FD9D1424940F2912333
:1030D0003C4A3D4805F0C1FA3F4805F0BEFA40F2CF
:1030E0009121384805F015FD04F4E823B3F5C82F05
:1030F0000ED13A494FF42673324A334805F0ADFAFF
:10310000374805F0AAFA4FF426712E4805F001FD64
:1031100004F4C823B3F5804F0ED1324940F29F2307
:10312000284A294805F099FA2F4805F096FA40F206
:103130009F21244805F0EDFC0127DAF80030B74064
:103140001F420ED1294940F2A5231E4A1E4805F010
:1031500084FA274805F081FA40F2A521194805F0C4
:10316000D8FC220405D5DBF800301F4201D084F4DE
:10317000C02404F4C02304F4B03231462846D8F801
:103180001870B8470022D9F80830C3F8802003B07F
:10319000BDE8F08FD5F80880D8F81830002B7FF400
:1031A0007DAF4521134B044A1348CDF8008005F04C
:1031B0000CFD5EE760030021C5BB06014AB50601B0
:1031C000E0B90601D2B5060171A906010ABA0601E5
:1031D00059B9060173B90601B4B9060135BA060139
:1031E000B6BA06010ABB060154BB060199B806012E
:1031F000D7B8060141B9060184B5060173B5044686
:10320000144E089AB368C3F88020FDF719FA2146D6
:1032100005F01BFF054688B145210F4A0F4805F010
:10322000D4FCB368D3F8800005F0EDFC0093452191
:103230000B4B094A0B4805F0C8FCF2E7A3681A6A71
:10324000002AF3D020469047B368C3F8805002B0FC
:1032500070BD00BF60030021A9BB06014AB506018D
:1032600099BB060184B5060108B5436803491A688D
:10327000006906F030F8002008BD00BF8CA10601EF
:10328000F7B50446154E0A9AB3680F46C3F8802076
:10329000FDF7D6F9214606F03BF8054688B14521F1
:1032A0000F4A104805F091FCB368D3F8800005F090
:1032B000AAFC009345210C4B094A0C4805F085FCFB
:1032C000F2E7A3681A68002AF3D0394620469047EF
:1032D000B368C3F8805003B0F0BD00BF60030021A5
:1032E000BCBD06014AB506017AB5060184B50601E2
:1032F00073B50446214E089AB3680D46C3F8802082
:10330000FDF79EF9214606F003F858B345211C4A03
:103310001C4805F05AFCB368D3F8800005F073FC34
:103320002946204698470022B368C3F8802002B09F
:1033300070BDA3685B68002BF2D16FF05700F2E715
:1033400001220421284605F0AFFC0028F1D00E4BE5
:103350004521019304230A4A00930C482B4605F0AB
:1033600034FCD8E7A3685A68002AE9D100934521C4
:10337000074B034A074805F028FCCCE7600300210F
:10338000A6BD06014AB50601F4AA0601E3A8060196
:10339000D8BC060184B506012DE9F04F85B0814601
:1033A0003E4E02AFBC6B8A46B1685FFA82F8C1F844
:1033B00080401FFA83FBFDF743F9494605F0A8FF5B
:1033C0000246002862D04521354A364805F0FDFB0B
:1033D000B368D3F8800005F016FC0135EAB29045D9
:1033E00003F10C031FD8D9F8083042469D682146E6
:1033F0005B464846A847B3680C37C3F880A0BD4673
:10340000BDE8F08FCB1D23F00703ADEB030D0DF1ED
:103410000B04A30824F003040A46204651467B60AF
:1034200005F0A4FC2346D3E900011A7A3B6002F0C0
:10343000010205F039FC3B6882460028CDD00C2003
:1034400045432C44227A184812F0010F174A08BF4E
:1034500002467B68616855F82330CDE90012144AB2
:103460000FE00C2101FB08F15046796005F01CFCCF
:10347000796805460028C5D00B4B094ACDE90013F1
:10348000534645210B4805F0A0FBA1E708F1FF33A7
:103490001E2BE6D94521024A074897E76003002121
:1034A00092BD06014AB506016AD10601F4AA0601D9
:1034B0007BBD0601E3A80601E3BC060170B5044626
:1034C0000E4E069AB368C3F88020FDF7B9F821467E
:1034D00005F01EFF054648B109484521094A05F097
:1034E00074FBB368D3F8800005F08DFBA368204619
:1034F0001B689847B368C3F8805070BD6003002113
:103500004AB506015ABD060138B504460B4D069A68
:10351000AB68C3F880202046FDF792F8214605F0FD
:10352000F7FE0028F7D006484521064A05F04DFB76
:10353000AB68D3F8800005F066FB00BF6003002194
:103540004AB5060137BD060138B50446114D069A45
:10355000AB68C3F88020FDF773F8214605F0D8FE6C
:1035600080B10D4845210D4A05F02FFBAB68D3F81B
:10357000800005F048FB204698470022AB68C3F85E
:10358000802038BDA3685B69002BF4D16FF0570031
:10359000F3E700BF600300214AB5060120BD060124
:1035A00073B50446144E089AB368C3F88020FDF73B
:1035B00047F8214605F0AEFF054688B145210F4A80
:1035C0000F4805F002FBB368D3F8800005F01BFB41
:1035D000009345210B4B094A0B4805F0F6FAF2E738
:1035E000A3689A68002AF3D020469047B368C3F8CE
:1035F000805002B070BD00BF6003002119BF0601FA
:103600004AB50601F4BD060184B5060173B504464A
:10361000214E089AB3680D46C3F88020FDF710F8D4
:10362000214605F077FF58B345211C4A1C4805F098
:10363000CCFAB368D3F8800005F0E5FA29462046B5
:1036400098470022B368C3F8802002B070BDA36819
:103650001B68002BF2D16FF05700F2E701222846D9
:10366000114605F021FB0028F1D00E4B45210193B6
:1036700001230A4A00930C482B4605F0A6FAD8E726
:10368000A3681A68002AE9D100934521074B034A31
:10369000074805F09AFACCE76003002105BF060150
:1036A0004AB50601F4AA0601E3A80601FEBD06011B
:1036B00084B5060173B505461C4C089AA3680E46EE
:1036C000C3F88020FCF7BCFF294605F023FFD0B1EA
:1036D0004521174A174805F078FAA368D3F8800007
:1036E00005F091FA01220221304605F0DDFAB0B171
:1036F000114B4521019302230D4A00930F48334695
:1037000005F063FAE9E7AB681A68002AEAD100938A
:1037100045210B4B064A0B4805F057FADDE7A36835
:10372000C3F880006FF0850002B070BD6003002117
:10373000EDBE06014AB50601F4AA0601E3A806019A
:10374000FEBD060184B50601F7B50546154E0A9A79
:10375000B368CFB2C3F88020FCF772FF294605F0AA
:10376000D9FE044688B145210F4A104805F02DFACC
:10377000B368D3F8800005F046FA009345210C4B5E
:10378000094A0C4805F021FAF2E7AB685A68002AAA
:10379000F3D02846394690472046B368C3F88040A6
:1037A00003B0F0BD60030021D8BE06014AB5060192
:1037B00006BE060184B5060137B50446124D089AC7
:1037C000AB68C3F88020FCF73BFF214605F0A2FE62
:1037D00088B145210D4A0E4805F0F7F9AB68D3F8DA
:1037E000800005F010FA009245210A4B074A0A486A
:1037F00005F0EBF9F2E7A26851680029F3D0AA6856
:10380000C2F8800003B030BD60030021BFBE0601D6
:103810004AB5060106BE060184B5060173B5044625
:10382000214E089AB3680D46C3F88020FCF708FFC4
:10383000214605F06FFE58B345211C4A1C4805F08F
:10384000C4F9B368D3F8800005F0DDF929462046B5
:1038500098470022B368C3F8802002B070BDA36807
:103860001B69002BF2D16FF05700F2E7012208210B
:10387000284605F019FA0028F1D00E4B4521019396
:1038800008230A4A00930C482B4605F09EF9D8E716
:10389000A3681A69002AE9D100934521074B034A1E
:1038A000074805F092F9CCE760030021E6BF060166
:1038B0004AB50601F4AA0601E3A806010FBE0601F7
:1038C00084B5060173B50446214E089AB3680D46C7
:1038D000C3F88020FCF7B4FE214605F01BFE02462B
:1038E00050B345211B4A1C4805F06FF9B368D3F863
:1038F000800005F088F92946204698470022B368E1
:10390000C3F8802002B070BDA368DB68002BF2D141
:103910006FF05700F2E70821284605F0C5F90028A6
:10392000F2D00E4B4521019308230A4A00930C481C
:103930002B4605F04AF9D9E7A36819690029EAD1AD
:1039400000934521074B034A074805F03EF9CDE7B0
:1039500060030021D0BF06014AB506016AD1060105
:10396000E3A806010FBE060184B5060173B505463E
:10397000144E089AB368C3F88020FCF761FE29460C
:1039800005F0C8FD044688B145210F4A0F4805F0EF
:103990001CF9B368D3F8800005F035F90093452190
:1039A0000B4B094A0B4805F010F9F2E7AB68DA69EE
:1039B000002AF3D0284690472046B368C3F88040D9
:1039C00002B070BD60030021B6BF06014AB5060112
:1039D0001ABE060184B5060173B50546144E089A51
:1039E000B368C3F88020FCF72BFE294605F092FD52
:1039F000044688B145210F4A0F4805F0E6F8B36840
:103A0000D3F8800005F0FFF8009345210B4B094ADD
:103A10000B4805F0DAF8F2E7AB681A6A002AF3D02F
:103A2000284690472046B368C3F8804002B070BD76
:103A3000600300219BBF06014AB5060128BE0601AE
:103A400084B5060173B50546144E089AB368C3F8E9
:103A50008020FCF7F5FD294605F05CFD044688B1A1
:103A600045210F4A0F4805F0B0F8B368D3F880003D
:103A700005F0C9F8009345210B4B094A0B4805F0A6
:103A8000A4F8F2E7AB689A6A002AF3D02846904778
:103A90002046B368C3F8804002B070BD60030021C7
:103AA00081BF06014AB5060137BE060184B506018D
:103AB00073B50546144E089AB368C3F88020FCF726
:103AC000BFFD294605F026FD044688B145210F4A71
:103AD0000F4805F07AF8B368D3F8800005F093F842
:103AE000009345210B4B094A0B4805F06EF8F2E7AD
:103AF000AB68DA6A002AF3D0284690472046B368BC
:103B0000C3F8804002B070BD6003002166BF0601AB
:103B10004AB5060145BE060184B5060173B50546E2
:103B2000144E089AB368C3F88020FCF789FD294633
:103B300005F0F0FC044688B145210F4A0F4805F016
:103B400044F8B368D3F8800005F05DF80093452190
:103B50000B4B094A0B4805F038F8F2E7AB689A6B53
:103B6000002AF3D0284690472046B368C3F8804027
:103B700002B070BD600300214BBF06014AB50601CB
:103B800054BE060184B5060173B50546144E089A65
:103B9000B368C3F88020FCF753FD294605F0BAFC52
:103BA000044688B145210F4A0F4805F00EF8B36866
:103BB000D3F8800005F027F8009345210B4B094A04
:103BC0000B4805F002F8F2E7AB68DA6B002AF3D095
:103BD000284690472046B368C3F8804002B070BDC5
:103BE000600300212FBF06014AB5060163BE06012E
:103BF00084B5060173B50446144E089AB368C3F839
:103C00008020FCF71DFD214605F084FC054688B1A7
:103C100045210F4A0F4804F0D8FFB368D3F880005D
:103C200004F0F1FF009345210B4B094A0B4804F0C7
:103C3000CCFFF2E7A3681A6C002AF3D02046904725
:103C4000B368C3F8805002B070BD00BF60030021AC
:103C5000A4BE06014AB5060173BE060184B506017D
:103C600073B50446144E089AB368C3F88020FCF775
:103C7000E7FC214605F04EFC054688B145210F4A78
:103C80000F4804F0A2FFB368D3F8800004F0BBFF34
:103C9000009345210B4B094A0B4804F096FFF2E7CD
:103CA000A3685A6C002AF3D020469047B368C3F843
:103CB000805002B070BD00BF600300218DBE0601C0
:103CC0004AB5060182BE060184B506014FF0E02325
:103CD0009A69196910B511F4803F98690849094B30
:103CE00001D1824206D21A680C6822441A604FF051
:103CF000E02212691B680A681344181A10BD00BF3D
:103D0000540300215C03002120220020084B83F88B
:103D10002320084A084B1A60084B18604FF0E02334
:103D20005A6198611A6942F007021A61704700BF30
:103D300000ED00E08FD00300540300215C0300215C
:103D400008B5FFF7C3FF0B4B0B4A1868116808440E
:103D5000106000221A60094A09491368C01AB0FBB2
:103D6000F1F001FB0033136003F0CEFBBDE8084027
:103D7000FDF7ECBF5C030021500300214C03002140
:103D800090D00300F8B5454C59B1421C09D14FF011
:103D9000E022136923F0010313614FF07F43236096
:103DA000F8BD431C266836D0012836DD422836DCB3
:103DB000471E4FF02003EFF3118583F31288BFF302
:103DC0006F8F374800F0E8FD68B98E23354A3649D1
:103DD000364804F042FC3249354804F03EFC8E215E
:103DE000304804F096FE2E4800F0F2FDFFF76EFF1B
:103DF0004FF0E02300222F49D3F818C00B68184475
:103E00002D4B08601A602D4B1A68831A09D543F6AA
:103E10000953236019E04220CAE70027C9E7422777
:103E2000C7E7DFF89CE0121A0EFB073303F5743383
:103E30008F33B3FBFEF30EFB032343F60952934289
:103E400029D9204A9342E4D922604FF0E022246825
:103E50009369013C546100249C4538BFB444ACEBE9
:103E6000030C6044946108600D4800F0A3FD68B93C
:103E7000B9230C4A14490D4804F0EFFB08491348D4
:103E800004F0EBFBB921074804F043FE85F31188E9
:103E9000BFF36F8F84E71346BBE700BF54030021D5
:103EA00058030021FDBF060123C0060171A90601C8
:103EB00038C00601500300215C0300214C0300219F
:103EC00090D0030020C5FB0050C0060167C006016A
:103ED00038B54FF02003EFF3118583F31288BFF359
:103EE0006F8F1B4800F058FD68B98E23194A1A4994
:103EF0001A4804F0B2FB1649194804F0AEFB8E21B3
:103F0000144804F006FE124800F062FDFFF7DEFEE2
:103F1000144B1C68144B1B68E41A04440C4800F052
:103F200049FD68B9B9230B4A10490C4804F095FBC8
:103F300007490F4804F091FBB921064804F0E9FD58
:103F400085F31188BFF36F8F0A48B4FBF0F038BDDA
:103F500058030021FDBF060123C0060171A9060117
:103F600038C00601500300214C03002150C0060157
:103F700067C0060190D0030038B54FF02003EFF37F
:103F8000118583F31288BFF36F8F194800F004FD89
:103F900068B98E23174A1849184804F05EFB144983
:103FA000174804F05AFB8E21124804F0B2FD104865
:103FB00000F00EFDFFF78AFE124B1C6804440C480B
:103FC00000F0F8FC68B9B9230A4A0F490B4804F01D
:103FD00044FB07490D4804F040FBB921054804F0B3
:103FE00098FD85F31188BFF36F8F204638BD00BF61
:103FF00058030021FDBF060123C0060171A9060177
:1040000038C006015003002150C0060167C00601F8
:104010002DE9F04304460D4617469946A3B0EFF349
:10402000058313BB04F003FEF8B14FF0FF311648CF
:104030000A469C2603DF20BB684604F0F6FD4A468C
:1040400039462A9B2846A0470446684604F0EEFD00
:10405000EFF305838BB904F0EAFD70B10A489D26A1
:1040600003DF204623B0BDE8F0834FF0FF324FF06E
:10407000FF33054800F074FDDDE7034800F096FECD
:10408000EFE71F24EDE700BFE428002138B5054C19
:10409000054DAC4200D338BD204605F01EFC183457
:1040A000F7E700BF2C9A0601C49B06010E4B70B5C2
:1040B00053F82040013053F82060A64200D870BD6C
:1040C000D4E900352846984765B1EB6830B100283F
:1040D000B8BF4042FF28A8BFFF2018705A7842F0AE
:1040E00001025A700834E8E720A2060170B50546BF
:1040F00010B90024204670BD0378002BF9D00E4C77
:104100000E4EB44208D10C4CB442F2D0204605F019
:104110001CFA50B91834F7E7204605F016FA10B12A
:104120002368AB42E6D01834EBE72846216804F058
:1041300011FE0028EED1DDE72C9A0601C49B060192
:1041400010B50B4C8CB0109AA3680146C3F88020C0
:104150006846302204F052F840B96846FFF7C6FFBF
:104160000022A368C3F880200CB010BD0020F7E740
:1041700060030021F8B5124E089AB3680546C3F8EB
:104180008020FCF75DFA01220021074603F0D8FFEA
:10419000044670B100233A46294603F05FFF094800
:1041A0004521094A04F011FDB368D3F8800004F0FA
:1041B0002AFD284605F0C9F9B368C3F88040F8BD68
:1041C000600300214AB506017CC006010022034BB2
:1041D0009B68186EC3F88020704700BF6003002101
:1041E00010B504464521034804F0EFFC204605F0D5
:1041F000B6F900BF93C00601F7B504460E464FF06E
:104200002003EFF3118783F31288BFF36F8F02F05F
:104210000DFD0022042C98BF1F4B054694BF53F898
:1042200024301E4B0092452122461D4804F0CDFC4F
:104230003EB1F369C3F308031BB14521194804F0EB
:10424000C4FC35B1284605F0AAF9034608B1027846
:1042500002B9154B2A464521144804F0B6FC3146F4
:104260002046FFF7BDFF042C0CD111498F23114AC2
:10427000114804F0F2F9114804F0EFF98F210D48CC
:1042800004F047FC87F31188BFF36F8F284603B013
:10429000BDE8F040FEF758B838A20601A7C00601F5
:1042A000BDC00601EAC00601B5C0060110C1060185
:1042B0004FC106012DC1060171A906016CC106019D
:1042C000982310B50F4C012203FB0044002386B055
:1042D000CDE904230F22CDE90232182201930A4BC3
:1042E0000A4902FB00334FF4A072009302FB001155
:1042F000074B204600F0ECF8637B23F00403637364
:1043000006B010BD98000021600300218004002148
:10431000CD4A0601012208B5094B02201A70FFF7A9
:10432000C5FE03F097FF0320FFF7C0FE00F090FAF0
:10433000FCF7DEFB034A137B23F00103137308BD74
:1043400079040021300100210248034A0021121A99
:1043500004F017BD000000217C04002180B5DFF8C7
:10436000B880ACB088F308880024E0232B4D2C4E95
:1043700085F82230EC772C766C76AC766B6ADFF8B9
:10438000A49043F4E0236B62FDF75CFFFDF762FA53
:104390004FF0FF33AB62EB62FEF770FAFDF7E6FF1A
:1043A00040F20113ADF824301F4BCDE91F44249394
:1043B00006ABB3602794FFF769FE2046FFF776FE51
:1043C0000120FFF773FE02F0A9F9184B184D059371
:1043D000012318494FF42062CDE9034328464B4698
:1043E000CDE901440094B56100F072F807466A7B9C
:1043F000284622F004026A7301F032FD2046FFF7DE
:104400005FFF0D4B4A4639462846F3603475C6F8BF
:104410000480FDF7D1FB00BFC00D002100ED00E0DE
:104420006003002115430601A4030021EBC106012E
:1044300030010021C01500219800002152EA03013B
:1044400010B402D110BC01F053BD024910BC1830A9
:1044500002F056BE8D6006010022034B6FF057003C
:104460009B68C3F880207047600300210022034B43
:104470006FF057009B68C3F88020704760030021ED
:1044800070B505460F4E069AB368C3F88020FCF756
:10449000D7F800230922294605F06AF8044648B1F6
:1044A00009484521094A04F090FBB368D3F880001D
:1044B00004F0A9FB284601F01BFDB3682046C3F8B1
:1044C000804070BD600300214AB50601D4C50601D5
:1044D0002DE9FF47DDE90FA8BAF10F0F04460E469C
:1044E00015461F4661D1464B9F4262D118F0040F1A
:1044F00014D0304605F055F880B940F20223414A05
:104500004149424804F0A9F821464148324604F0A6
:10451000A4F840F202213B4804F0FBFA4FF00009F6
:10452000204605F0DAF9304605F0D7F9E667C4F819
:1045300080902046214605F0C5F904F15803C4E9EE
:10454000163304233046C4E90699C4F8089084F869
:104550000C80637384F80EA084F80F9005F021F8A6
:1045600000283AD01F3525F01F0573191A1FC4E91A
:1045700018260822A566A3F108050E9B3146029372
:104580000D9BE26601930C9B2A46009320463B4616
:10459000FDF7CCFA00231F4E6365B3680BBB2846BA
:1045A000C4F8843004B0BDE8F0870AF110031E2B74
:1045B0009CD940F2FF13134A1749144804F04DF8F0
:1045C00051466FF00F030E22144804F046F840F2F3
:1045D000FF110C4804F09DFA88E7073525F0070520
:1045E000C3E7204603F0A4FB18F0080F03D02146D0
:1045F000B06803F00BFDB368D3F88430CFE700BF99
:10460000CD4A0601F3C10601C7C2060171A9060120
:104610000AC306016003002116C2060196C2060104
:104620002DE9F04387B00446DDE914980D4616469F
:104630001F46EFF3058373B1174940F26E23174A03
:10464000174804F00AF8174804F007F840F26E2102
:10465000124804F05EFA00230593129B324604933D
:10466000119B29460393109B204602930F9B0193B5
:104670000E9B00933B46FFF72BFFB8F1FF3F08BFAF
:10468000B9F1FF3F04D04A4643462046FFF7D6FE25
:10469000204607B0BDE8F08335C30601F3C106012B
:1046A00071A9060147C306012DE9F04F054687B001
:1046B0000E46DDE916AB17469946FBF7C1FF4FF0F2
:1046C000FF330922294604F053FF354C002857D008
:1046D0004521344A344804F078FAA368D3F88000BE
:1046E00004F091FA149B5B0735D445212D4A2F48DD
:1046F000F1E70593149B3A460493139B31460393C9
:10470000129B28460293119B0193109B00934B46EA
:10471000FFF7DEFEBBF1FF3F08BFBAF1FF3F04D059
:1047200052465B462846FFF789FE284607B0BDE89B
:10473000F08FA268139992F90E208A42D9DD4521A3
:10474000184A1B48C7E7139A10321E2AF1D945218F
:10475000144A1848BFE7149B13F00103F3D0452116
:10476000104A1548B7E7D8F808301B68BB42B9D2E1
:10477000009345213B460B4A104804F026FAACE76B
:104780003046FBF75DFF4FF0FF330B22314680468A
:1047900004F0EEFE0028E6D04521024A08489AE7D8
:1047A00060030021BDC506014AB50601DFC306014D
:1047B0007EC4060145C406010EC406019BC3060162
:1047C0006CC306012DE9F0471D4E88B0119C91463F
:1047D0009A46129AB3680746C3F88020884600229A
:1047E0001421204604F060FA054670B1154B1648B6
:1047F0000193142345210093144A234604F0E5F95C
:10480000B368D3F8800004F0FEF9D4E90423CDE9BD
:104810000623E3684A460493A3684146039363680A
:104820003846029323680193109B00935346FFF789
:104830003BFFB368C3F8805008B0BDE8F08700BF05
:10484000600300216AD10601E3A80601A6C506019E
:104850002DE9F043474C484D484F87B0AC422646BF
:104860000ED9474940F2D5233A46464803F0F5FEB3
:10487000454803F0F2FE40F2D521384604F049F9EC
:10488000AE4204F1300435D3404C414FDFF8EC80A8
:10489000BC420ED93F4940F2CA234246394803F090
:1048A000DCFE394803F0D9FE40F2CA21404604F04C
:1048B00030F9BC4244D301F081F82E4C2F4E304FDA
:1048C000DFF8C080AC420ED939464FF43D73324612
:1048D000404603F0C2FE2C4803F0BFFE4FF43D718A
:1048E000304604F016F9AC422CD307B0BDE8F043D3
:1048F00001F048BE54F8043C059354F8103C04936E
:1049000054F8143C039354F8183C029354F81C3C9C
:10491000019354F8203C009354E90A2354E90C0114
:10492000FFF7D6FD54F8303C5E6597E7216804F048
:10493000C9FF6368985904360028F7D10834A7E7FF
:104940000026F6E7606A431C12D020EAE070C11727
:1049500009304FF00A024FF0000341F10001FBF76C
:1049600053FFD4F8009002460B464846FFF766FD19
:104970003034A7E7E4280021E4280021F3C1060130
:10498000D0C4060171A90601FDC40601C49F060139
:10499000C49F06011CC50601006838B1044B00F035
:1049A00003001B7DC01A18BF01207047012070470B
:1049B00060030021054903468A68087D196802439F
:1049C0000020914204BF186001207047600300215D
:1049D000024A117D93680B43036070476003002116
:1049E00038B505460E4C069AA368C3F88020FBF73D
:1049F00027FE00230922294604F0BAFD48B10948E0
:104A00004521094A04F0E1F8A368D3F8800004F0D6
:104A1000FAF8A368C3F880006FF0850038BD00BFC6
:104A2000600300214AB506018FC5060170B5054631
:104A30000F4E069AB368C3F88020FBF701FE0023EF
:104A40000922294604F094FD044648B1094845214D
:104A5000094A04F0BAF8B368D3F8800004F0D3F838
:104A600005F1180002F062FCB368C3F8804070BD25
:104A7000600300214AB5060167C5060170B5054609
:104A80000F4E069AB368C3F88020FBF7D9FD0023C8
:104A90000922294604F06CFD044648B10948452125
:104AA000094A04F092F8B368D3F8800004F0ABF838
:104AB00005F1180002F086FCB368C3F8804070BDB1
:104AC000600300214AB5060141C5060108B50D4B3A
:104AD0009B6893F90E30002B09DA0B490B4827230A
:104AE0000B4A03F0BAFD2721094804F012F84FF0F1
:104AF0002002EFF3118382F31288BFF36F8FFCF76C
:104B0000AFFEF4E7600300210BC6060171A90601A0
:104B1000EAC5060170B505460E4E069AB368C3F89D
:104B20008020FBF78DFD0122294604F041FD04465B
:104B300048B109484521094A04F047F8B368D3F859
:104B4000800004F060F8284604F049FDB368C3F81B
:104B5000804070BD600300214AB506011AC70601F6
:104B60002DE9F341044617461E46EFF3058363B172
:104B70006D4965236D4A6E4803F06FFD6D4803F083
:104B80006CFD6521694803F0C4FF4FF02003EFF38B
:104B9000118883F31288BFF36F8F6748FFF7FCFE1D
:104BA00068B98E23654A6649614803F056FD62493B
:104BB000644803F052FD8E21604803F0AAFF5E486E
:104BC000FFF706FFE368604AFBB1A068916888427E
:104BD0003DD057EA06033CD15748FFF7EBFE68B9D2
:104BE000B923564A5949524803F037FD52495848AB
:104BF00003F033FDB921514803F08BFF88F311888E
:104C0000BFF36F8F6FF00F001EE0916891F90E10E7
:104C10000133E360936848482161A360FFF7CAFE4F
:104C200068B9B923454A4949414803F016FD42494C
:104C3000474803F012FDB921404803F06AFF88F3AA
:104C40001188BFF36F8F002002B0BDE8F0812169A9
:104C5000DEE791F90E1090F90E306FF07E02994266
:104C6000A8BF19469142B8BF11468B4243DD04F0FC
:104C7000AEFC054622464146CDE900762E4801F0BD
:104C800019FB0028E0D04FF02003EFF3118683F3E7
:104C90001288BFF36F8F2848FFF77EFE68B98E2316
:104CA000264A2749224803F0D8FC2349254803F027
:104CB000D4FC8E21214803F02CFF1F48FFF788FE0B
:104CC000236821699C420AD04BB193F90E30994276
:104CD000A8BF19466FF07E039942B8BF1946A06875
:104CE00004F075FC00B945B13146134800F022FECE
:104CF0006FF00A00A8E70025BCE70F48FFF75AFE4F
:104D000068B9B9230D4A1149094803F0A6FC0A49BC
:104D10000F4803F0A2FCB921084803F0FAFE86F31D
:104D20001188BFF36F8FE3E735C3060133C6060171
:104D300071A9060155C6060184030021FDBF0601C5
:104D400023C0060138C006016003002150C00601DF
:104D500067C006012DE9F0410546114E1746B368BC
:104D6000089A8846C3F88020FBF76AFC002229468F
:104D700004F01EFC044648B10A4845210A4A03F0E3
:104D800024FFB368D3F8800003F03DFF3B46424662
:104D90002846FFF7E5FEB368C3F88040BDE8F08120
:104DA000600300214AB5060106C7060138B504466E
:104DB000EFF3058363B15049C723504A504803F0CD
:104DC0004CFC504803F049FCC7214C4803F0A1FEBD
:104DD000A368002B00F08A804B4DAA68934240F0F4
:104DE0008880E3684BB949494548DF23434A03F0CB
:104DF00034FCDF21414803F08CFEEFF3058363B1FF
:104E00003D49FD23424A3E4803F027FC414803F058
:104E100024FCFD213E4803F07CFEAB68DB7B012BCC
:104E20000CD13D49FE233A4A354803F016FC394877
:104E300003F013FCFE21364803F06BFEAA68D37B17
:104E4000013BD373E368012B05D9013BE36001F01B
:104E500099FB002038BD4FF02003EFF3118583F359
:104E60001288BFF36F8F2D48FFF796FD68B98E2328
:104E70002B4A2C49224803F0F0FB28492A4803F02A
:104E8000ECFB8E21264803F044FE2448FFF7A0FDEA
:104E90002169A06804F09BFB204601F0EFFBA060B5
:104EA00060B190F90E2022610022C0F88C2000F041
:104EB000D7FF2946194800F03DFDC8E7E0601748D4
:104EC000FFF778FD68B9B923154A18490C4803F073
:104ED000C4FB1249164803F0C0FBB921104803F087
:104EE00018FE85F31188BFF36F8FB0E76FF01500E0
:104EF000B0E74FF0FF30ADE735C3060133C606011A
:104F000071A9060155C60601600300217AC6060193
:104F100091C60601BCC60601BFC606018403002176
:104F2000FDBF060123C0060138C0060150C00601BE
:104F300067C0060170B505460E4E069AB368C3F801
:104F40008020FBF77DFB0022294604F031FB04465C
:104F500048B109484521094A03F037FEB368D3F840
:104F6000800003F050FE2846FFF720FFB368C3F827
:104F7000804070BD600300214AB50601F0C60601FD
:104F80002DE9F04704460E46904699469DF820A02C
:104F900000F108054FF02003EFF3118783F3128827
:104FA000BFF36F8F2846FFF7F7FC68B98E233A4AA4
:104FB0003A493B4803F051FB29463A4803F04DFB80
:104FC0008E21354803F0A5FD2846FFF701FDBAF113
:104FD000000F00D0666804F10C0001F04FFB60B1D7
:104FE0000024C0F81480C0F88C4000F039FF284637
:104FF000394600F09FFC00201EE0B9F1000F2ED0D2
:10500000082102F0E3FBC8B92846FFF7D3FC68B9D2
:10501000B923214A2449224803F01FFB294623488B
:1050200003F01BFBB9211C4803F073FD87F31188C3
:10503000BFF36F8F6FF00B00BDE8F0870123C0F85E
:1050400004800360036803F0030266B92368134316
:10505000036063682060002BC9D16060C7E74046E9
:10506000C8F80090EEE7336833F003030BD1026019
:10507000626812B9C4E90000B9E7136803F00303DA
:1050800003431360E9E713430360336803F003034A
:1050900018433060ABE700BFFDBF060123C0060127
:1050A00071A9060138C0060150C0060167C006019B
:1050B00070B505460F4E069AB368C3F88020FBF71B
:1050C000BFFA4FF0FF32294604F093FA044648B184
:1050D00009484521094A03F078FDB368D3F88000F8
:1050E00003F091FD284604F09FFAB3682046C3F808
:1050F000804070BD600300214AB50601DFC706018C
:1051000070B5054600F108044FF02003EFF3118657
:1051100083F31288BFF36F8F2046FFF73DFC68B919
:105120008E23104A1049114803F097FA214610487F
:1051300003F093FA8E210B4803F0EBFC2046FFF7B7
:1051400047FC05F10C0001F099FA28B10022C0F8E3
:105150008C20426100F084FE31462046BDE870405C
:1051600000F0E8BBFDBF060123C0060171A90601DE
:1051700038C0060170B505460F4E069AB368C3F8ED
:105180008020FBF75DFA0022294604F032FA04463B
:1051900048B10A4845210A4A03F017FDB368D3F81D
:1051A000800003F030FD2846FFF7AAFFB3682046D1
:1051B000C3F8804070BD00BF600300214AB50601FE
:1051C000C4C70601F8B505460F4E089AB3680F46E6
:1051D000C3F88020FBF734FA0022294604F009FACC
:1051E000044648B109484521094A03F0EEFCB3687A
:1051F000D3F8800003F007FD3946284604F01EFA74
:10520000B368C3F88040F8BD600300214AB50601C9
:10521000A8C70601F8B505460F4E089AB3680F46B1
:10522000C3F88020FBF70CFA0022294604F0E1F9CC
:10523000044648B109484521094A03F0C6FCB36851
:10524000D3F8800003F0DFFC3946284604F000FA6A
:10525000B368C3F88040F8BD600300214AB5060179
:105260008BC706012DE9F743064690461F4600F11D
:1052700008054FF02003EFF3118983F31288BFF381
:105280006F8F2846FFF788FB68B98E23254A264989
:10529000264803F0E2F92946254803F0DEF98E217D
:1052A000204803F036FC2846FFF792FB34683CB3F5
:1052B0002368726823F00303944220464FF00101F3
:1052C000336008BF736004F0A3F904462846FFF773
:1052D00071FB68B9B923134A1649144803F0BDF9A4
:1052E0002946154803F0B9F9B9210E4803F011FC1D
:1052F00089F31188BFF36F8F204603B0BDE8F083B8
:1053000058EA0703E2D049462846CDE9008706F16E
:105310000C0200F0CFFF0028EED1084B9B685C69BF
:10532000EAE700BFFDBF060123C0060171A906011F
:1053300038C0060150C0060167C0060160030021A5
:105340002DE9F0410546114E1746B368089A884684
:10535000C3F88020FBF774F90022294604F049F9CC
:10536000044648B10A4845210A4A03F02EFCB368B6
:10537000D3F8800003F047FC3B4642462846FFF73F
:1053800071FFB368C3F88040BDE8F081600300217D
:105390004AB5060178C7060138B504460E4D069A8F
:1053A000AB68C3F88020FBF74BF90022214604F0DC
:1053B00020F948B109484521094A03F006FCAB68C9
:1053C000D3F8800003F01FFC2368AA68C2F88000AD
:1053D000B3FA83F0400938BD600300214AB50601E5
:1053E00060C7060170B505460E4E069AB368C3F84D
:1053F0008020FBF725F90022294604F0FAF804463C
:1054000048B109484521094A03F0DFFBB368D3F8E6
:10541000800003F0F8FB284604F024F9B368C3F8D1
:10542000804070BD600300214AB5060147C70601F0
:1054300070B505460E4E069AB368C3F88020FBF798
:10544000FFF80022294604F0D4F8044648B1094880
:105450004521094A03F0B9FBB368D3F8800003F093
:10546000D2FB284604F002F9B368C3F8804070BD4F
:10547000600300214AB506012EC7060170B5044637
:105480000D461646FBF7DCF80122214604F0F2F83F
:1054900050B109484521094A03F097FB084B9B6826
:1054A000D3F8800003F0AFFB324629462046BDE822
:1054B000704004F0EEB800BF4AB50601AFC806015F
:1054C0006003002138B5064C069DA368C3F88050E0
:1054D000FFF7D4FF0022A368C3F8802038BD00BFC7
:1054E0006003002138B504464FF02003EFF3118527
:1054F00083F31288BFF36F8F1548FFF74DFA68B931
:105500008E23144A1449154803F0A7F8104914488B
:1055100003F0A3F88E210F4803F0FBFA0C48FFF7C5
:1055200057FA204601F0AAF850B10022C0F88C20AA
:1055300000F096FC2946BDE83840054800F0FAB96D
:10554000D4E902329A4218BF0133A360F2E700BFE8
:1055500088030021FDBF060123C0060171A90601D1
:1055600038C0060170B505460F4E069AB368C3F8F9
:105570008020FBF765F80022294604F07BF80446FA
:1055800048B10A4845210A4A03F01FFBB368D3F823
:10559000800003F038FB2846FFF7A4FFB3682046DD
:1055A000C3F8804070BD00BF600300214AB506010A
:1055B0009DC80601F7B5044616461D46EFF3058360
:1055C0007BB152EA05030CD035497923354A364878
:1055D00003F043F8354803F040F87921314803F0EF
:1055E00098FA4FF02003EFF3118783F31288BFF38B
:1055F0006F8F2F48FFF7D0F968B98E232D4A2E49B7
:10560000294803F02AF82A492C4803F026F88E216D
:10561000284803F07EFA2648FFF7DAF9A368D3B1E9
:10562000013B2348A360FFF7C5F968B9B923214AB4
:1056300023491D4803F011F81D49224803F00DF8D5
:10564000B9211C4803F065FA87F31188BFF36F8F07
:10565000002003B0F0BD56EA050318D11448FFF747
:10566000A9F968B9B923134A15490F4802F0F5FFA3
:105670000F49144802F0F1FFB9210E4803F049FA2E
:1056800087F31188BFF36F8F6FF00F00E1E72246B9
:105690003946CDE90065064800F00CFED9E700BFA9
:1056A00013C80601F3C7060171A90601BCC60601AD
:1056B00088030021FDBF060123C0060138C0060192
:1056C00050C0060167C0060170B504464FF02003C4
:1056D000EFF3118583F31288BFF36F8F1348FFF741
:1056E0005BF968B98E23124A1249134802F0B5FFDC
:1056F0000E49124802F0B1FF8E210D4803F009FA5D
:105700000A48FFF765F96FF00A06204600F0B6FF79
:1057100020B1C0F88C6000F0A3FBF6E7A06029463A
:10572000BDE87040014800F005B900BF88030021C2
:10573000FDBF060123C0060171A9060138C006019C
:105740002DE9F0410546114E1746B368089A884680
:10575000C3F88020FAF774FF0022294603F08AFF7D
:10576000044648B10A4845210A4A03F02EFAB368B4
:10577000D3F8800003F047FA3B4642462846FFF73D
:1057800019FFB368C3F88040BDE8F08160030021D1
:105790004AB506018BC8060170B505460F4E069A3C
:1057A000B368C3F88020FAF74BFF0022294603F0C4
:1057B00061FF044648B10A4845210A4A03F005FA48
:1057C000B368D3F8800003F01EFA2846FFF77CFF89
:1057D000B3682046C3F8804070BD00BF600300215D
:1057E0004AB5060178C8060138B504460D4D069A3B
:1057F000AB68C3F88020FAF723FF0022214603F0AC
:1058000039FF034648B108484521084A03F0DDF94D
:10581000AB68D3F8800003F0F6F9AA68A068C2F874
:10582000803038BD600300214AB5060161C8060119
:1058300010B5084C23685BB1FEF74AFB03462068AD
:10584000054A03440021BDE81040136101F00CBE7D
:1058500010BD00BF980300216003002170B504460D
:105860000D464FF02003EFF3118683F31288BFF348
:105870006F8F2648FFF790F868B98E23244A254990
:10588000254802F0EAFE2149244802F0E6FE8E2176
:105890001F4803F03EF91D48FFF79AF80023204AFD
:1058A00014F1090013614FF0FF3243F1000182420D
:1058B0008B4121D30A23B0FBF3F0002C194B20DCE1
:1058C0001860194B1D60FFF7B3FF1048FFF772F81F
:1058D00068B9B9230E4A15490F4802F0BEFE0B49BC
:1058E000134802F0BAFEB921094803F012F986F311
:1058F0001188BFF36F8F70BD0A220023FAF784FF6F
:10590000DBE70228B8BF0220DAE700BF90030021DE
:10591000FDBF060123C0060171A9060138C00601BA
:1059200060030021980300219403002150C0060168
:1059300067C0060138B504460D46E9B9EFF30583A3
:10594000D3B9194B9A699B689A4215D0FFF732F880
:1059500068B9D023154A1649164802F07EFE214642
:10596000154802F07AFED021104803F0D2F8BDE8C5
:1059700038400020FCF72EB82046FFF71BF868B926
:10598000B9230A4A0A490B4802F067FE21460A4831
:1059900002F063FEB921054803F0BBF885F31188D6
:1059A000BFF36F8F38BD00BF60030021FDBF06014C
:1059B00050C0060171A9060167C0060138B54FF055
:1059C0002003EFF3118583F31288BFF36F8F29480B
:1059D000FEF7E2FF68B98E23274A2849284802F0DB
:1059E0003CFE2449274802F038FE8E21224803F06D
:1059F00090F82048FEF7ECFFEFF3058363B12249EE
:105A0000FD23224A1E4802F028FE214802F025FE0E
:105A1000FD211E4803F07DF81E4CA368DB7B012BA3
:105A20000CD11D49FE23194A154802F016FE1848EC
:105A300002F013FEFE21154803F06BF8A268D37B39
:105A4000013BD3730B48FEF7B5FF68B9B9230A4A87
:105A500012490B4802F001FE0649114802F0FDFD13
:105A6000B921054803F055F885F31188BFF36F8F0E
:105A700038BD00BF90030021FDBF060123C0060111
:105A800071A9060138C0060135C3060191C6060199
:105A9000BCC6060160030021BFC6060150C0060156
:105AA00067C006010C4B10B599420C460BD10B494F
:105AB0000B4840F2E7330B4A02F0CFFD40F2E731EA
:105AC000084803F026F8D4E9003213605A60002336
:105AD000C4E9003310BD00BF98000021E3C80601EF
:105AE00071A90601C1C80601836810B504465BB9F7
:105AF0000B490C4840F283230B4A02F0AEFD40F202
:105B00008321094803F005F82146A068FFF7CAFF82
:105B1000637B23F0020363730023A36010BD00BF07
:105B200004C9060171A90601C1C8060138B50446B9
:105B30004FF02003EFF3118583F31288BFF36F8FCB
:105B40001948FEF729FF68B98E23184A18491948E1
:105B500002F083FD1449184802F07FFD8E2113489E
:105B600002F0D7FF1048FEF733FF2046FFF7BCFFD7
:105B70000D48FEF71FFF68B9B9230C4A0F490D48BD
:105B800002F06BFD08490E4802F067FDB921074895
:105B900002F0BFFF85F31188BFF36F8F04F1180087
:105BA000BDE8384001F074BB90030021FDBF060141
:105BB00023C0060171A9060138C0060150C00601C4
:105BC00067C0060138B50246144803F0ABFD144D1A
:105BD000044600B9EC68CAB9AB6863B911498923B6
:105BE000114A124802F039FD114802F036FD8921B0
:105BF0000D4802F08EFFAB685A7BD20606D1A2692F
:105C000022B9DA897F2A01D9AB6138BDAB68A342DA
:105C100001D0FFF70DFEAC61F7E700BF7C03002168
:105C2000600300211BC90601C1C8060171A9060154
:105C3000BCC6060170B590F90D200446002A437BCE
:105C400006DA03F07F03014643731E48FFF72AFF7D
:105C5000637B63F07F0363731B4B9C4209D11B4939
:105C60001B48BA231B4A02F0F8FCBA21194802F07B
:105C700050FF194A02F11C05D2E90730AB421BD094
:105C8000D3B194F90E6093F90E108E420FD0891B98
:105C900000290CDD5968C4E900310C605C60906833
:105CA000031B58425841BDE87040FFF78BBF834249
:105CB00002D01B68002BE6D1C4E9005004601462D6
:105CC000EDE700BF7C03002198000021E3C8060136
:105CD00071A90601C1C806016003002138B5044658
:105CE0004FF02003EFF3118583F31288BFF36F8F1A
:105CF0002948FEF751FE68B98E23284A28492948C9
:105D000002F0ABFC2449284802F0A7FC8E2123486E
:105D100002F0FFFE2048FEF75BFE244B244A986801
:105D20001168884218D1FFF783FD1B48FEF742FE39
:105D300068B9B923194A1F491A4802F08EFC16495E
:105D40001D4802F08AFCB921144802F0E2FE85F3F6
:105D50001188BFF36F8F38BD00211160174A126898
:105D6000BAB1C2897F2A14D8427BD20611D1144A13
:105D700090F90E10126891420BDB124A904208D043
:105D80001A69A24202DCFFF755FFCCE7121B1A6129
:105D9000CBE70022FBE700BF90030021FDBF060117
:105DA00023C0060171A9060138C006016003002165
:105DB0008C03002150C0060167C006019803002132
:105DC000940300219800002170B590F90D2004463D
:105DD000002A437B39DBDA0637D18269002A34D1C5
:105DE00063F07F034373194B984209D1184919484E
:105DF000BA23194A02F031FCBA21174802F089FE91
:105E0000164A02F11C05D2E90730AB4218D0BBB1EB
:105E100094F90E6093F90E108E420CD0891B002964
:105E200009DD5A68C4E9003214605C600020BDE8F6
:105E30007040FFF7C7BE984202D01B68002BE9D123
:105E4000C4E9005004601462F0E770BD98000021BE
:105E5000E3C8060171A90601C1C80601600300215B
:105E600038B504464FF02003EFF3118583F3128811
:105E7000BFF36F8F1748FEF78FFD68B98E23164A60
:105E80001649174802F0E9FB1249164802F0E5FBF3
:105E90008E21114802F03DFE0E48FEF799FD204686
